{
  "_format": "hh3-artifact-1",
  "contractName": "RewardToken",
  "sourceName": "contracts/RewardToken.sol",
  "abi": [
    {
      "inputs": [
        {
          "internalType": "address",
          "name": "_platform",
          "type": "address"
        }
      ],
      "stateMutability": "nonpayable",
      "type": "constructor"
    },
    {
      "inputs": [
        {
          "internalType": "address",
          "name": "spender",
          "type": "address"
        },
        {
          "internalType": "uint256",
          "name": "allowance",
          "type": "uint256"
        },
        {
          "internalType": "uint256",
          "name": "needed",
          "type": "uint256"
        }
      ],
      "name": "ERC20InsufficientAllowance",
      "type": "error"
    },
    {
      "inputs": [
        {
          "internalType": "address",
          "name": "sender",
          "type": "address"
        },
        {
          "internalType": "uint256",
          "name": "balance",
          "type": "uint256"
        },
        {
          "internalType": "uint256",
          "name": "needed",
          "type": "uint256"
        }
      ],
      "name": "ERC20InsufficientBalance",
      "type": "error"
    },
    {
      "inputs": [
        {
          "internalType": "address",
          "name": "approver",
          "type": "address"
        }
      ],
      "name": "ERC20InvalidApprover",
      "type": "error"
    },
    {
      "inputs": [
        {
          "internalType": "address",
          "name": "receiver",
          "type": "address"
        }
      ],
      "name": "ERC20InvalidReceiver",
      "type": "error"
    },
    {
      "inputs": [
        {
          "internalType": "address",
          "name": "sender",
          "type": "address"
        }
      ],
      "name": "ERC20InvalidSender",
      "type": "error"
    },
    {
      "inputs": [
        {
          "internalType": "address",
          "name": "spender",
          "type": "address"
        }
      ],
      "name": "ERC20InvalidSpender",
      "type": "error"
    },
    {
      "anonymous": false,
      "inputs": [
        {
          "indexed": true,
          "internalType": "address",
          "name": "owner",
          "type": "address"
        },
        {
          "indexed": true,
          "internalType": "address",
          "name": "spender",
          "type": "address"
        },
        {
          "indexed": false,
          "internalType": "uint256",
          "name": "value",
          "type": "uint256"
        }
      ],
      "name": "Approval",
      "type": "event"
    },
    {
      "anonymous": false,
      "inputs": [
        {
          "indexed": true,
          "internalType": "uint256",
          "name": "projectId",
          "type": "uint256"
        },
        {
          "indexed": true,
          "internalType": "address",
          "name": "recipient",
          "type": "address"
        },
        {
          "indexed": false,
          "internalType": "uint256",
          "name": "tokenAmount",
          "type": "uint256"
        }
      ],
      "name": "RewardAllocated",
      "type": "event"
    },
    {
      "anonymous": false,
      "inputs": [
        {
          "indexed": true,
          "internalType": "address",
          "name": "from",
          "type": "address"
        },
        {
          "indexed": true,
          "internalType": "address",
          "name": "to",
          "type": "address"
        },
        {
          "indexed": false,
          "internalType": "uint256",
          "name": "value",
          "type": "uint256"
        }
      ],
      "name": "Transfer",
      "type": "event"
    },
    {
      "inputs": [
        {
          "internalType": "address",
          "name": "owner",
          "type": "address"
        },
        {
          "internalType": "address",
          "name": "spender",
          "type": "address"
        }
      ],
      "name": "allowance",
      "outputs": [
        {
          "internalType": "uint256",
          "name": "",
          "type": "uint256"
        }
      ],
      "stateMutability": "view",
      "type": "function"
    },
    {
      "inputs": [
        {
          "internalType": "address",
          "name": "spender",
          "type": "address"
        },
        {
          "internalType": "uint256",
          "name": "value",
          "type": "uint256"
        }
      ],
      "name": "approve",
      "outputs": [
        {
          "internalType": "bool",
          "name": "",
          "type": "bool"
        }
      ],
      "stateMutability": "nonpayable",
      "type": "function"
    },
    {
      "inputs": [
        {
          "internalType": "address",
          "name": "account",
          "type": "address"
        }
      ],
      "name": "balanceOf",
      "outputs": [
        {
          "internalType": "uint256",
          "name": "",
          "type": "uint256"
        }
      ],
      "stateMutability": "view",
      "type": "function"
    },
    {
      "inputs": [],
      "name": "decimals",
      "outputs": [
        {
          "internalType": "uint8",
          "name": "",
          "type": "uint8"
        }
      ],
      "stateMutability": "view",
      "type": "function"
    },
    {
      "inputs": [
        {
          "internalType": "address",
          "name": "_to",
          "type": "address"
        },
        {
          "internalType": "uint256",
          "name": "_projectId",
          "type": "uint256"
        },
        {
          "internalType": "uint256",
          "name": "_amount",
          "type": "uint256"
        }
      ],
      "name": "distributeRewards",
      "outputs": [],
      "stateMutability": "nonpayable",
      "type": "function"
    },
    {
      "inputs": [],
      "name": "name",
      "outputs": [
        {
          "internalType": "string",
          "name": "",
          "type": "string"
        }
      ],
      "stateMutability": "view",
      "type": "function"
    },
    {
      "inputs": [],
      "name": "platform",
      "outputs": [
        {
          "internalType": "address",
          "name": "",
          "type": "address"
        }
      ],
      "stateMutability": "view",
      "type": "function"
    },
    {
      "inputs": [],
      "name": "symbol",
      "outputs": [
        {
          "internalType": "string",
          "name": "",
          "type": "string"
        }
      ],
      "stateMutability": "view",
      "type": "function"
    },
    {
      "inputs": [],
      "name": "totalSupply",
      "outputs": [
        {
          "internalType": "uint256",
          "name": "",
          "type": "uint256"
        }
      ],
      "stateMutability": "view",
      "type": "function"
    },
    {
      "inputs": [
        {
          "internalType": "address",
          "name": "to",
          "type": "address"
        },
        {
          "internalType": "uint256",
          "name": "value",
          "type": "uint256"
        }
      ],
      "name": "transfer",
      "outputs": [
        {
          "internalType": "bool",
          "name": "",
          "type": "bool"
        }
      ],
      "stateMutability": "nonpayable",
      "type": "function"
    },
    {
      "inputs": [
        {
          "internalType": "address",
          "name": "from",
          "type": "address"
        },
        {
          "internalType": "address",
          "name": "to",
          "type": "address"
        },
        {
          "internalType": "uint256",
          "name": "value",
          "type": "uint256"
        }
      ],
      "name": "transferFrom",
      "outputs": [
        {
          "internalType": "bool",
          "name": "",
          "type": "bool"
        }
      ],
      "stateMutability": "nonpayable",
      "type": "function"
    },
    {
      "inputs": [
        {
          "internalType": "address",
          "name": "_newPlatform",
          "type": "address"
        }
      ],
      "name": "updatePlatform",
      "outputs": [],
      "stateMutability": "nonpayable",
      "type": "function"
    }
  ],
  "bytecode": "0x608060405234801561000f575f5ffd5b50604051610c74380380610c7483398101604081905261002e91610111565b6040518060400160405280600f81526020016e10dc9bddd9199d5b9914995dd85c99608a1b8152506040518060400160405280600481526020016310d1949160e21b815250816003908161008291906101d6565b50600461008f82826101d6565b5050506001600160a01b0381166100ec5760405162461bcd60e51b815260206004820152601860248201527f496e76616c696420706c6174666f726d20616464726573730000000000000000604482015260640160405180910390fd5b600580546001600160a01b0319166001600160a01b0392909216919091179055610290565b5f60208284031215610121575f5ffd5b81516001600160a01b0381168114610137575f5ffd5b9392505050565b634e487b7160e01b5f52604160045260245ffd5b600181811c9082168061016657607f821691505b60208210810361018457634e487b7160e01b5f52602260045260245ffd5b50919050565b601f8211156101d157805f5260205f20601f840160051c810160208510156101af5750805b601f840160051c820191505b818110156101ce575f81556001016101bb565b50505b505050565b81516001600160401b038111156101ef576101ef61013e565b610203816101fd8454610152565b8461018a565b6020601f821160018114610235575f831561021e5750848201515b5f19600385901b1c1916600184901b1784556101ce565b5f84815260208120601f198516915b828110156102645787850151825560209485019460019092019101610244565b508482101561028157868401515f19600387901b60f8161c191681555b50505050600190811b01905550565b6109d78061029d5f395ff3fe608060405234801561000f575f5ffd5b50600436106100b1575f3560e01c806370a082311161006e57806370a08231146101555780638dc3ec4d1461017d57806395d89b4114610192578063a293da0f1461019a578063a9059cbb146101ad578063dd62ed3e146101c0575f5ffd5b806306fdde03146100b5578063095ea7b3146100d357806318160ddd146100f657806323b872dd14610108578063313ce5671461011b5780634bde38c81461012a575b5f5ffd5b6100bd6101f8565b6040516100ca9190610817565b60405180910390f35b6100e66100e1366004610867565b610288565b60405190151581526020016100ca565b6002545b6040519081526020016100ca565b6100e661011636600461088f565b6102a1565b604051601281526020016100ca565b60055461013d906001600160a01b031681565b6040516001600160a01b0390911681526020016100ca565b6100fa6101633660046108c9565b6001600160a01b03165f9081526020819052604090205490565b61019061018b3660046108e9565b6102c4565b005b6100bd61041b565b6101906101a83660046108c9565b61042a565b6100e66101bb366004610867565b6104fc565b6100fa6101ce366004610919565b6001600160a01b039182165f90815260016020908152604080832093909416825291909152205490565b6060600380546102079061094a565b80601f01602080910402602001604051908101604052809291908181526020018280546102339061094a565b801561027e5780601f106102555761010080835404028352916020019161027e565b820191905f5260205f20905b81548152906001019060200180831161026157829003601f168201915b5050505050905090565b5f33610295818585610509565b60019150505b92915050565b5f336102ae85828561051b565b6102b9858585610597565b506001949350505050565b6005546001600160a01b031633146103235760405162461bcd60e51b815260206004820152601b60248201527f4f6e6c7920706c6174666f726d2063616e2063616c6c2074686973000000000060448201526064015b60405180910390fd5b6001600160a01b0383166103795760405162461bcd60e51b815260206004820152601a60248201527f43616e6e6f7420726577617264207a65726f2061646472657373000000000000604482015260640161031a565b5f81116103c85760405162461bcd60e51b815260206004820152601d60248201527f416d6f756e74206d7573742062652067726561746572207468616e2030000000604482015260640161031a565b6103d283826105f4565b826001600160a01b0316827f430a18f091830a5a0781d84ee30e10968a2eccb8a0043782ea6f5efee275827c8360405161040e91815260200190565b60405180910390a3505050565b6060600480546102079061094a565b6005546001600160a01b031633146104845760405162461bcd60e51b815260206004820152601b60248201527f4f6e6c7920706c6174666f726d2063616e2063616c6c20746869730000000000604482015260640161031a565b6001600160a01b0381166104da5760405162461bcd60e51b815260206004820152601860248201527f496e76616c696420706c6174666f726d20616464726573730000000000000000604482015260640161031a565b600580546001600160a01b0319166001600160a01b0392909216919091179055565b5f33610295818585610597565b610516838383600161062c565b505050565b6001600160a01b038381165f908152600160209081526040808320938616835292905220545f19811015610591578181101561058357604051637dc7a0d960e11b81526001600160a01b0384166004820152602481018290526044810183905260640161031a565b61059184848484035f61062c565b50505050565b6001600160a01b0383166105c057604051634b637e8f60e11b81525f600482015260240161031a565b6001600160a01b0382166105e95760405163ec442f0560e01b81525f600482015260240161031a565b6105168383836106fe565b6001600160a01b03821661061d5760405163ec442f0560e01b81525f600482015260240161031a565b6106285f83836106fe565b5050565b6001600160a01b0384166106555760405163e602df0560e01b81525f600482015260240161031a565b6001600160a01b03831661067e57604051634a1406b160e11b81525f600482015260240161031a565b6001600160a01b038085165f908152600160209081526040808320938716835292905220829055801561059157826001600160a01b0316846001600160a01b03167f8c5be1e5ebec7d5bd14f71427d1e84f3dd0314c0f7b2291e5b200ac8c7c3b925846040516106f091815260200190565b60405180910390a350505050565b6001600160a01b038316610728578060025f82825461071d9190610982565b909155506107989050565b6001600160a01b0383165f908152602081905260409020548181101561077a5760405163391434e360e21b81526001600160a01b0385166004820152602481018290526044810183905260640161031a565b6001600160a01b0384165f9081526020819052604090209082900390555b6001600160a01b0382166107b4576002805482900390556107d2565b6001600160a01b0382165f9081526020819052604090208054820190555b816001600160a01b0316836001600160a01b03167fddf252ad1be2c89b69c2b068fc378daa952ba7f163c4a11628f55a4df523b3ef8360405161040e91815260200190565b602081525f82518060208401528060208501604085015e5f604082850101526040601f19601f83011684010191505092915050565b80356001600160a01b0381168114610862575f5ffd5b919050565b5f5f60408385031215610878575f5ffd5b6108818361084c565b946020939093013593505050565b5f5f5f606084860312156108a1575f5ffd5b6108aa8461084c565b92506108b86020850161084c565b929592945050506040919091013590565b5f602082840312156108d9575f5ffd5b6108e28261084c565b9392505050565b5f5f5f606084860312156108fb575f5ffd5b6109048461084c565b95602085013595506040909401359392505050565b5f5f6040838503121561092a575f5ffd5b6109338361084c565b91506109416020840161084c565b90509250929050565b600181811c9082168061095e57607f821691505b60208210810361097c57634e487b7160e01b5f52602260045260245ffd5b50919050565b8082018082111561029b57634e487b7160e01b5f52601160045260245ffdfea264697066735822122077aaaac8b8ae22797e0da08e3beba2e3a969e3db6ea646918099c8153baec6c064736f6c634300081c0033",
  "linkReferences": {},
  "deployedLinkReferences": {},
  "immutableReferences": {},
  "inputSourceName": "project/contracts/RewardToken.sol",
  "buildInfoId": "solc-0_8_28-1d98e0870731239da5c06d0522cf30f7b137f38d"
}