{
  "_format": "hh3-artifact-1",
  "contractName": "CrowdfundingPlatform",
  "sourceName": "contracts/CrowdfundingPlatform.sol",
  "abi": [
    {
      "anonymous": false,
      "inputs": [
        {
          "indexed": true,
          "internalType": "uint256",
          "name": "projectId",
          "type": "uint256"
        },
        {
          "indexed": true,
          "internalType": "address",
          "name": "creator",
          "type": "address"
        },
        {
          "indexed": false,
          "internalType": "string",
          "name": "title",
          "type": "string"
        },
        {
          "indexed": false,
          "internalType": "uint256",
          "name": "goal",
          "type": "uint256"
        },
        {
          "indexed": false,
          "internalType": "uint256",
          "name": "deadline",
          "type": "uint256"
        },
        {
          "indexed": false,
          "internalType": "uint256",
          "name": "timestamp",
          "type": "uint256"
        }
      ],
      "name": "CampaignCreated",
      "type": "event"
    },
    {
      "anonymous": false,
      "inputs": [
        {
          "indexed": true,
          "internalType": "uint256",
          "name": "projectId",
          "type": "uint256"
        },
        {
          "indexed": true,
          "internalType": "uint8",
          "name": "newStatus",
          "type": "uint8"
        },
        {
          "indexed": false,
          "internalType": "uint256",
          "name": "timestamp",
          "type": "uint256"
        }
      ],
      "name": "CampaignStatusChanged",
      "type": "event"
    },
    {
      "anonymous": false,
      "inputs": [
        {
          "indexed": true,
          "internalType": "uint256",
          "name": "projectId",
          "type": "uint256"
        },
        {
          "indexed": true,
          "internalType": "address",
          "name": "contributor",
          "type": "address"
        },
        {
          "indexed": false,
          "internalType": "uint256",
          "name": "amount",
          "type": "uint256"
        },
        {
          "indexed": false,
          "internalType": "uint256",
          "name": "timestamp",
          "type": "uint256"
        }
      ],
      "name": "ContributionReceived",
      "type": "event"
    },
    {
      "anonymous": false,
      "inputs": [
        {
          "indexed": true,
          "internalType": "uint256",
          "name": "projectId",
          "type": "uint256"
        },
        {
          "indexed": true,
          "internalType": "address",
          "name": "creator",
          "type": "address"
        },
        {
          "indexed": false,
          "internalType": "uint256",
          "name": "amount",
          "type": "uint256"
        },
        {
          "indexed": false,
          "internalType": "uint256",
          "name": "timestamp",
          "type": "uint256"
        }
      ],
      "name": "FundsWithdrawn",
      "type": "event"
    },
    {
      "anonymous": false,
      "inputs": [
        {
          "indexed": true,
          "internalType": "uint256",
          "name": "projectId",
          "type": "uint256"
        },
        {
          "indexed": true,
          "internalType": "address",
          "name": "contributor",
          "type": "address"
        },
        {
          "indexed": false,
          "internalType": "uint256",
          "name": "amount",
          "type": "uint256"
        },
        {
          "indexed": false,
          "internalType": "uint256",
          "name": "timestamp",
          "type": "uint256"
        }
      ],
      "name": "RefundClaimed",
      "type": "event"
    },
    {
      "inputs": [],
      "name": "campaignCount",
      "outputs": [
        {
          "internalType": "uint256",
          "name": "",
          "type": "uint256"
        }
      ],
      "stateMutability": "view",
      "type": "function"
    },
    {
      "inputs": [
        {
          "internalType": "uint256",
          "name": "",
          "type": "uint256"
        }
      ],
      "name": "campaigns",
      "outputs": [
        {
          "internalType": "address",
          "name": "creator",
          "type": "address"
        },
        {
          "internalType": "string",
          "name": "title",
          "type": "string"
        },
        {
          "internalType": "string",
          "name": "description",
          "type": "string"
        },
        {
          "internalType": "uint256",
          "name": "goal",
          "type": "uint256"
        },
        {
          "internalType": "uint256",
          "name": "deadline",
          "type": "uint256"
        },
        {
          "internalType": "uint256",
          "name": "totalRaised",
          "type": "uint256"
        },
        {
          "internalType": "uint8",
          "name": "status",
          "type": "uint8"
        },
        {
          "internalType": "bool",
          "name": "fundsWithdrawn",
          "type": "bool"
        }
      ],
      "stateMutability": "view",
      "type": "function"
    },
    {
      "inputs": [
        {
          "internalType": "uint256",
          "name": "_projectId",
          "type": "uint256"
        }
      ],
      "name": "checkAndUpdateStatus",
      "outputs": [],
      "stateMutability": "nonpayable",
      "type": "function"
    },
    {
      "inputs": [
        {
          "internalType": "uint256",
          "name": "_projectId",
          "type": "uint256"
        }
      ],
      "name": "claimRefund",
      "outputs": [],
      "stateMutability": "nonpayable",
      "type": "function"
    },
    {
      "inputs": [
        {
          "internalType": "uint256",
          "name": "_projectId",
          "type": "uint256"
        }
      ],
      "name": "contribute",
      "outputs": [],
      "stateMutability": "payable",
      "type": "function"
    },
    {
      "inputs": [
        {
          "internalType": "uint256",
          "name": "",
          "type": "uint256"
        },
        {
          "internalType": "address",
          "name": "",
          "type": "address"
        }
      ],
      "name": "contributions",
      "outputs": [
        {
          "internalType": "uint256",
          "name": "",
          "type": "uint256"
        }
      ],
      "stateMutability": "view",
      "type": "function"
    },
    {
      "inputs": [
        {
          "internalType": "string",
          "name": "_title",
          "type": "string"
        },
        {
          "internalType": "string",
          "name": "_description",
          "type": "string"
        },
        {
          "internalType": "uint256",
          "name": "_goal",
          "type": "uint256"
        },
        {
          "internalType": "uint256",
          "name": "_durationInDays",
          "type": "uint256"
        }
      ],
      "name": "createCampaign",
      "outputs": [
        {
          "internalType": "uint256",
          "name": "",
          "type": "uint256"
        }
      ],
      "stateMutability": "nonpayable",
      "type": "function"
    },
    {
      "inputs": [
        {
          "internalType": "uint256",
          "name": "_projectId",
          "type": "uint256"
        }
      ],
      "name": "getCampaign",
      "outputs": [
        {
          "internalType": "address",
          "name": "creator",
          "type": "address"
        },
        {
          "internalType": "string",
          "name": "title",
          "type": "string"
        },
        {
          "internalType": "string",
          "name": "description",
          "type": "string"
        },
        {
          "internalType": "uint256",
          "name": "goal",
          "type": "uint256"
        },
        {
          "internalType": "uint256",
          "name": "deadline",
          "type": "uint256"
        },
        {
          "internalType": "uint256",
          "name": "totalRaised",
          "type": "uint256"
        },
        {
          "internalType": "uint8",
          "name": "status",
          "type": "uint8"
        },
        {
          "internalType": "bool",
          "name": "fundsWithdrawn",
          "type": "bool"
        }
      ],
      "stateMutability": "view",
      "type": "function"
    },
    {
      "inputs": [
        {
          "internalType": "uint256",
          "name": "_projectId",
          "type": "uint256"
        },
        {
          "internalType": "address",
          "name": "_contributor",
          "type": "address"
        }
      ],
      "name": "getContribution",
      "outputs": [
        {
          "internalType": "uint256",
          "name": "",
          "type": "uint256"
        }
      ],
      "stateMutability": "view",
      "type": "function"
    },
    {
      "inputs": [
        {
          "internalType": "uint256",
          "name": "",
          "type": "uint256"
        },
        {
          "internalType": "address",
          "name": "",
          "type": "address"
        }
      ],
      "name": "refunds",
      "outputs": [
        {
          "internalType": "uint256",
          "name": "",
          "type": "uint256"
        }
      ],
      "stateMutability": "view",
      "type": "function"
    },
    {
      "inputs": [
        {
          "internalType": "uint256",
          "name": "_projectId",
          "type": "uint256"
        }
      ],
      "name": "withdrawFunds",
      "outputs": [],
      "stateMutability": "nonpayable",
      "type": "function"
    }
  ],
  "bytecode": "0x6080604052348015600e575f5ffd5b5061128a8061001c5f395ff3fe60806040526004361061009a575f3560e01c80635b7baf64116100625780635b7baf64146101945780637274e30d146101b3578063a318f269146101c7578063c1cbbca7146101e6578063dffed305146101f9578063e081dbf914610218575f5ffd5b8063141961bc1461009e578063155dd5ee146100da5780633d891f59146100fb578063454cc4bc1461013f5780635598f8cc14610175575b5f5ffd5b3480156100a9575f5ffd5b506100bd6100b8366004610e4a565b610237565b6040516100d1989796959493929190610e8f565b60405180910390f35b3480156100e5575f5ffd5b506100f96100f4366004610e4a565b610395565b005b348015610106575f5ffd5b50610131610115366004610ef6565b600260209081525f928352604080842090915290825290205481565b6040519081526020016100d1565b34801561014a575f5ffd5b50610131610159366004610ef6565b600360209081525f928352604080842090915290825290205481565b348015610180575f5ffd5b506100bd61018f366004610e4a565b6105c5565b34801561019f575f5ffd5b506100f96101ae366004610e4a565b61077b565b3480156101be575f5ffd5b506101315f5481565b3480156101d2575f5ffd5b506101316101e1366004610fce565b610928565b6100f96101f4366004610e4a565b610b23565b348015610204575f5ffd5b506100f9610213366004610e4a565b610d39565b348015610223575f5ffd5b50610131610232366004610ef6565b610e21565b600160208190525f9182526040909120805491810180546001600160a01b039093169261026390611042565b80601f016020809104026020016040519081016040528092919081815260200182805461028f90611042565b80156102da5780601f106102b1576101008083540402835291602001916102da565b820191905f5260205f20905b8154815290600101906020018083116102bd57829003601f168201915b5050505050908060020180546102ef90611042565b80601f016020809104026020016040519081016040528092919081815260200182805461031b90611042565b80156103665780601f1061033d57610100808354040283529160200191610366565b820191905f5260205f20905b81548152906001019060200180831161034957829003601f168201915b505050506003830154600484015460058501546006909501549394919390925060ff8082169161010090041688565b805f811180156103a657505f548111155b6103cb5760405162461bcd60e51b81526004016103c29061107a565b60405180910390fd5b5f82815260016020526040902080546001600160a01b031633146104315760405162461bcd60e51b815260206004820152601960248201527f4f6e6c792063726561746f722063616e2077697468647261770000000000000060448201526064016103c2565b600681015460ff166001148061044f57508060030154816005015410155b6104a55760405162461bcd60e51b815260206004820152602160248201527f43616d706169676e20686173206e6f7420726561636865642069747320676f616044820152601b60fa1b60648201526084016103c2565b6006810154610100900460ff16156104ff5760405162461bcd60e51b815260206004820152601760248201527f46756e647320616c72656164792077697468647261776e00000000000000000060448201526064016103c2565b60068101805461ff001981166101001790915560058201549060ff166001146105575760068201805460ff1916600190811790915560405142815285905f5160206112355f395f51905f529060200160405180910390a35b60408051828152426020820152339186917f3dbb1a26f29aef1264c12ca1285deb60cca5666d8b17100c7ea1602c0a4014f691015b60405180910390a3604051339082156108fc029083905f818181858888f193505050501580156105be573d5f5f3e3d5ffd5b5050505050565b5f6060805f5f5f5f5f885f811180156105df57505f548111155b6105fb5760405162461bcd60e51b81526004016103c29061107a565b5f8a815260016020819052604090912080546003820154600483015460058401546006850154958501805495966001600160a01b03909516959094600288019493929160ff8083169261010090041690879061065690611042565b80601f016020809104026020016040519081016040528092919081815260200182805461068290611042565b80156106cd5780601f106106a4576101008083540402835291602001916106cd565b820191905f5260205f20905b8154815290600101906020018083116106b057829003601f168201915b505050505096508580546106e090611042565b80601f016020809104026020016040519081016040528092919081815260200182805461070c90611042565b80156107575780601f1061072e57610100808354040283529160200191610757565b820191905f5260205f20905b81548152906001019060200180831161073a57829003601f168201915b50505050509550995099509950995099509950995099505050919395975091939597565b805f8111801561078c57505f548111155b6107a85760405162461bcd60e51b81526004016103c29061107a565b5f8281526001602052604090206004810154421180156107cf575080600301548160050154105b6108145760405162461bcd60e51b815260206004820152601660248201527510d85b5c185a59db881a5cc81b9bdd0819985a5b195960521b60448201526064016103c2565b600681015460ff166002146108585760068101805460ff1916600290811790915560405142815284905f5160206112355f395f51905f529060200160405180910390a35b5f838152600260209081526040808320338452909152902054806108be5760405162461bcd60e51b815260206004820152601960248201527f4e6f20636f6e747269627574696f6e20746f20726566756e640000000000000060448201526064016103c2565b5f84815260026020908152604080832033808552908352818420849055878452600383528184208185528352928190208490558051848152429281019290925286917f8faa8f78dba131fcf5a374c153d58b8f646053b7c2789321a5449f127258e1cd910161058c565b5f5f83116109785760405162461bcd60e51b815260206004820152601b60248201527f476f616c206d7573742062652067726561746572207468616e2030000000000060448201526064016103c2565b5f82116109c75760405162461bcd60e51b815260206004820152601f60248201527f4475726174696f6e206d7573742062652067726561746572207468616e20300060448201526064016103c2565b5f805490806109d5836110c5565b909155505f90506109e983620151806110dd565b6109f390426110f4565b604080516101008101825233815260208082018a81528284018a905260608301899052608083018590525f60a0840181905260c0840181905260e084018190528054815260019283905293909320825181546001600160a01b0319166001600160a01b039091161781559251939450909290820190610a72908261114b565b5060408201516002820190610a87908261114b565b50606082015160038201556080820151600482015560a0820151600582015560c08201516006909101805460e09093015115156101000261ffff1990931660ff909216919091179190911790555f546040513391907f9a6f279818b6c3ecad22dd882c63460a80cee0df2841c888adb08588aff26c2290610b0f908a90899087904290611206565b60405180910390a350505f54949350505050565b805f81118015610b3457505f548111155b610b505760405162461bcd60e51b81526004016103c29061107a565b5f828152600160205260409020600681015460ff1615610bab5760405162461bcd60e51b815260206004820152601660248201527543616d706169676e206973206e6f742061637469766560501b60448201526064016103c2565b80600401544210610bfe5760405162461bcd60e51b815260206004820152601c60248201527f43616d706169676e20646561646c696e6520686173207061737365640000000060448201526064016103c2565b5f3411610c595760405162461bcd60e51b815260206004820152602360248201527f436f6e747269627574696f6e206d75737420626520677265617465722074686160448201526206e20360ec1b60648201526084016103c2565b5f83815260026020908152604080832033845290915281208054349290610c819084906110f4565b9250508190555034816005015f828254610c9b91906110f4565b909155505060408051348152426020820152339185917fd2d33c5340520954ae03d46ba5f056dd7adb35260f86df538a709bed96d89afb910160405180910390a38060030154816005015410158015610cf95750600681015460ff16155b15610d345760068101805460ff1916600190811790915560405142815284905f5160206112355f395f51905f52906020015b60405180910390a35b505050565b805f81118015610d4a57505f548111155b610d665760405162461bcd60e51b81526004016103c29061107a565b5f828152600160205260409020600481015442118015610d8d575080600301548160050154105b15610dd257600681015460ff16600214610d345760068101805460ff1916600290811790915560405142815284905f5160206112355f395f51905f5290602001610d2b565b8060030154816005015410610d3457600681015460ff16600114610d345760068101805460ff1916600190811790915560405142815284905f5160206112355f395f51905f5290602001610d2b565b5f8281526002602090815260408083206001600160a01b03851684529091529020545b92915050565b5f60208284031215610e5a575f5ffd5b5035919050565b5f81518084528060208401602086015e5f602082860101526020601f19601f83011685010191505092915050565b6001600160a01b0389168152610100602082018190525f90610eb39083018a610e61565b8281036040840152610ec5818a610e61565b60608401989098525050608081019490945260a084019290925260ff1660c0830152151560e0909101529392505050565b5f5f60408385031215610f07575f5ffd5b8235915060208301356001600160a01b0381168114610f24575f5ffd5b809150509250929050565b634e487b7160e01b5f52604160045260245ffd5b5f82601f830112610f52575f5ffd5b813567ffffffffffffffff811115610f6c57610f6c610f2f565b604051601f8201601f19908116603f0116810167ffffffffffffffff81118282101715610f9b57610f9b610f2f565b604052818152838201602001851015610fb2575f5ffd5b816020850160208301375f918101602001919091529392505050565b5f5f5f5f60808587031215610fe1575f5ffd5b843567ffffffffffffffff811115610ff7575f5ffd5b61100387828801610f43565b945050602085013567ffffffffffffffff81111561101f575f5ffd5b61102b87828801610f43565b949794965050505060408301359260600135919050565b600181811c9082168061105657607f821691505b60208210810361107457634e487b7160e01b5f52602260045260245ffd5b50919050565b60208082526017908201527f43616d706169676e20646f6573206e6f74206578697374000000000000000000604082015260600190565b634e487b7160e01b5f52601160045260245ffd5b5f600182016110d6576110d66110b1565b5060010190565b8082028115828204841417610e4457610e446110b1565b80820180821115610e4457610e446110b1565b601f821115610d3457805f5260205f20601f840160051c8101602085101561112c5750805b601f840160051c820191505b818110156105be575f8155600101611138565b815167ffffffffffffffff81111561116557611165610f2f565b611179816111738454611042565b84611107565b6020601f8211600181146111ab575f83156111945750848201515b5f19600385901b1c1916600184901b1784556105be565b5f84815260208120601f198516915b828110156111da57878501518255602094850194600190920191016111ba565b50848210156111f757868401515f19600387901b60f8161c191681555b50505050600190811b01905550565b608081525f6112186080830187610e61565b602083019590955250604081019290925260609091015291905056feb4b6dae976f043b42fd2a99dd25502fe79adf304eb099e449e996c4aeb683940a26469706673582212207ab04d684c9b837e15313f5bc0e1858d9891a156d8fecf694ae9125e72770b3764736f6c634300081c0033",
  "linkReferences": {},
  "deployedLinkReferences": {},
  "immutableReferences": {},
  "inputSourceName": "project/contracts/CrowdfundingPlatform.sol",
  "buildInfoId": "solc-0_8_28-86915d55f773920ff3a3f7ec5878adf0b1b1c0e4"
}