{
  "_format": "hh3-artifact-1",
  "contractName": "CampaignFactory",
  "sourceName": "contracts/CampaignFactory.sol",
  "abi": [
    {
      "inputs": [
        {
          "internalType": "address",
          "name": "_userRegistryAddress",
          "type": "address"
        }
      ],
      "stateMutability": "nonpayable",
      "type": "constructor"
    },
    {
      "anonymous": false,
      "inputs": [
        {
          "indexed": true,
          "internalType": "address",
          "name": "campaignAddress",
          "type": "address"
        },
        {
          "indexed": true,
          "internalType": "address",
          "name": "creator",
          "type": "address"
        },
        {
          "indexed": false,
          "internalType": "string",
          "name": "title",
          "type": "string"
        },
        {
          "indexed": false,
          "internalType": "uint256",
          "name": "fundingTarget",
          "type": "uint256"
        },
        {
          "indexed": false,
          "internalType": "uint256",
          "name": "durationInDays",
          "type": "uint256"
        }
      ],
      "name": "CampaignCreated",
      "type": "event"
    },
    {
      "inputs": [
        {
          "internalType": "uint256",
          "name": "",
          "type": "uint256"
        }
      ],
      "name": "campaigns",
      "outputs": [
        {
          "internalType": "address",
          "name": "",
          "type": "address"
        }
      ],
      "stateMutability": "view",
      "type": "function"
    },
    {
      "inputs": [
        {
          "internalType": "string",
          "name": "_title",
          "type": "string"
        },
        {
          "internalType": "string",
          "name": "_description",
          "type": "string"
        },
        {
          "internalType": "uint256",
          "name": "_fundingTarget",
          "type": "uint256"
        },
        {
          "internalType": "uint256",
          "name": "_durationInDays",
          "type": "uint256"
        }
      ],
      "name": "createCampaign",
      "outputs": [
        {
          "internalType": "address",
          "name": "",
          "type": "address"
        }
      ],
      "stateMutability": "nonpayable",
      "type": "function"
    },
    {
      "inputs": [],
      "name": "getCampaignCount",
      "outputs": [
        {
          "internalType": "uint256",
          "name": "",
          "type": "uint256"
        }
      ],
      "stateMutability": "view",
      "type": "function"
    },
    {
      "inputs": [],
      "name": "getCampaigns",
      "outputs": [
        {
          "internalType": "address[]",
          "name": "",
          "type": "address[]"
        }
      ],
      "stateMutability": "view",
      "type": "function"
    },
    {
      "inputs": [
        {
          "internalType": "address",
          "name": "_user",
          "type": "address"
        }
      ],
      "name": "getUserCampaigns",
      "outputs": [
        {
          "internalType": "address[]",
          "name": "",
          "type": "address[]"
        }
      ],
      "stateMutability": "view",
      "type": "function"
    },
    {
      "inputs": [
        {
          "internalType": "address",
          "name": "",
          "type": "address"
        },
        {
          "internalType": "uint256",
          "name": "",
          "type": "uint256"
        }
      ],
      "name": "userCampaigns",
      "outputs": [
        {
          "internalType": "address",
          "name": "",
          "type": "address"
        }
      ],
      "stateMutability": "view",
      "type": "function"
    },
    {
      "inputs": [],
      "name": "userRegistryAddress",
      "outputs": [
        {
          "internalType": "address",
          "name": "",
          "type": "address"
        }
      ],
      "stateMutability": "view",
      "type": "function"
    }
  ],
  "bytecode": "0x6080604052348015600e575f5ffd5b506040516121f33803806121f3833981016040819052602b9160a8565b6001600160a01b03811660845760405162461bcd60e51b815260206004820152601860248201527f496e76616c696420726567697374727920616464726573730000000000000000604482015260640160405180910390fd5b600280546001600160a01b0319166001600160a01b039290921691909117905560d3565b5f6020828403121560b7575f5ffd5b81516001600160a01b038116811460cc575f5ffd5b9392505050565b612113806100e05f395ff3fe608060405234801561000f575f5ffd5b506004361061007a575f3560e01c80636caa9218116100585780636caa9218146100d4578063a1e5084c146100e4578063a318f26914610104578063a6b0363314610117575f5ffd5b8063141961bc1461007e57806319ac74bd146100ae5780633f39eaa1146100c1575b5f5ffd5b61009161008c366004610566565b61011f565b6040516001600160a01b0390911681526020015b60405180910390f35b6100916100bc366004610598565b610146565b600254610091906001600160a01b031681565b5f546040519081526020016100a5565b6100f76100f23660046105c0565b61017a565b6040516100a591906105e0565b6100916101123660046106ca565b6101ed565b6100f76104fa565b5f818154811061012d575f80fd5b5f918252602090912001546001600160a01b0316905081565b6001602052815f5260405f20818154811061015f575f80fd5b5f918252602090912001546001600160a01b03169150829050565b6001600160a01b0381165f908152600160209081526040918290208054835181840281018401909452808452606093928301828280156101e157602002820191905f5260205f20905b81546001600160a01b031681526001909101906020018083116101c3575b50505050509050919050565b5f84515f0361023b5760405162461bcd60e51b81526020600482015260156024820152745469746c652063616e6e6f7420626520656d70747960581b60448201526064015b60405180910390fd5b825f036102985760405162461bcd60e51b815260206004820152602560248201527f46756e64696e6720746172676574206d75737420626520677265617465722074604482015264068616e20360dc1b6064820152608401610232565b815f036102e75760405162461bcd60e51b815260206004820152601f60248201527f4475726174696f6e206d7573742062652067726561746572207468616e2030006044820152606401610232565b5f338686868660025f9054906101000a90046001600160a01b031660405161030e90610559565b61031d9695949392919061076c565b604051809103905ff080158015610336573d5f5f3e3d5ffd5b505f8054600180820183557f290decd9548b62a8d60345a988386fc84ba6bc95484008f6362f93160ef3e56390910180546001600160a01b038581166001600160a01b03199283168117909355338552602084815260408087208054968701815587529520909301805490911682179055600254925163ae2c4c0360e01b81526004810191909152929350839291169063ae2c4c03906024015f604051808303815f87803b1580156103e6575f5ffd5b505af11580156103f8573d5f5f3e3d5ffd5b50505050806001600160a01b03165f60015f8054905061041891906107c9565b81548110610428576104286107ee565b5f918252602090912001546001600160a01b03161461044957610449610802565b335f90815260016020819052604090912080546001600160a01b03841692610470916107c9565b81548110610480576104806107ee565b5f918252602090912001546001600160a01b0316146104a1576104a1610802565b336001600160a01b0316816001600160a01b03167f810c1f0481c76c27bfb99d47b443b405e6f4d247fb07302759cb36d58742d07f8988886040516104e893929190610816565b60405180910390a39695505050505050565b60605f80548060200260200160405190810160405280929190818152602001828054801561054f57602002820191905f5260205f20905b81546001600160a01b03168152600190910190602001808311610531575b5050505050905090565b6118a38061083b83390190565b5f60208284031215610576575f5ffd5b5035919050565b80356001600160a01b0381168114610593575f5ffd5b919050565b5f5f604083850312156105a9575f5ffd5b6105b28361057d565b946020939093013593505050565b5f602082840312156105d0575f5ffd5b6105d98261057d565b9392505050565b602080825282518282018190525f918401906040840190835b818110156106205783516001600160a01b03168352602093840193909201916001016105f9565b509095945050505050565b634e487b7160e01b5f52604160045260245ffd5b5f82601f83011261064e575f5ffd5b813567ffffffffffffffff8111156106685761066861062b565b604051601f8201601f19908116603f0116810167ffffffffffffffff811182821017156106975761069761062b565b6040528181528382016020018510156106ae575f5ffd5b816020850160208301375f918101602001919091529392505050565b5f5f5f5f608085870312156106dd575f5ffd5b843567ffffffffffffffff8111156106f3575f5ffd5b6106ff8782880161063f565b945050602085013567ffffffffffffffff81111561071b575f5ffd5b6107278782880161063f565b949794965050505060408301359260600135919050565b5f81518084528060208401602086015e5f602082860101526020601f19601f83011685010191505092915050565b6001600160a01b038716815260c0602082018190525f9061078f9083018861073e565b82810360408401526107a1818861073e565b6060840196909652505060808101929092526001600160a01b031660a0909101529392505050565b818103818111156107e857634e487b7160e01b5f52601160045260245ffd5b92915050565b634e487b7160e01b5f52603260045260245ffd5b634e487b7160e01b5f52600160045260245ffd5b606081525f610828606083018661073e565b6020830194909452506040015291905056fe608060405234801561000f575f5ffd5b506040516118a33803806118a383398101604081905261002e91610311565b6001600160a01b0386166100895760405162461bcd60e51b815260206004820152601760248201527f496e76616c69642063726561746f72206164647265737300000000000000000060448201526064015b60405180910390fd5b5f8551116100d95760405162461bcd60e51b815260206004820152601560248201527f5469746c652063616e6e6f7420626520656d70747900000000000000000000006044820152606401610080565b5f83116101365760405162461bcd60e51b815260206004820152602560248201527f46756e64696e6720746172676574206d75737420626520677265617465722074604482015264068616e20360dc1b6064820152608401610080565b5f82116101855760405162461bcd60e51b815260206004820152601f60248201527f4475726174696f6e206d7573742062652067726561746572207468616e2030006044820152606401610080565b6001600160a01b0381166101db5760405162461bcd60e51b815260206004820152601860248201527f496e76616c6964207265676973747279206164647265737300000000000000006044820152606401610080565b5f80546001600160a01b0319166001600160a01b0388161790556001610201868261042e565b50600261020e858261042e565b50600383905561022182620151806104fc565b61022b9042610519565b600455600980546001600160a01b0319166001600160a01b03929092169190911790555061052c9350505050565b80516001600160a01b038116811461026f575f5ffd5b919050565b634e487b7160e01b5f52604160045260245ffd5b5f82601f830112610297575f5ffd5b81516001600160401b038111156102b0576102b0610274565b604051601f8201601f19908116603f011681016001600160401b03811182821017156102de576102de610274565b6040528181528382016020018510156102f5575f5ffd5b8160208501602083015e5f918101602001919091529392505050565b5f5f5f5f5f5f60c08789031215610326575f5ffd5b61032f87610259565b60208801519096506001600160401b0381111561034a575f5ffd5b61035689828a01610288565b604089015190965090506001600160401b03811115610373575f5ffd5b61037f89828a01610288565b606089015160808a01519196509450925061039e905060a08801610259565b90509295509295509295565b600181811c908216806103be57607f821691505b6020821081036103dc57634e487b7160e01b5f52602260045260245ffd5b50919050565b601f82111561042957805f5260205f20601f840160051c810160208510156104075750805b601f840160051c820191505b81811015610426575f8155600101610413565b50505b505050565b81516001600160401b0381111561044757610447610274565b61045b8161045584546103aa565b846103e2565b6020601f82116001811461048d575f83156104765750848201515b5f19600385901b1c1916600184901b178455610426565b5f84815260208120601f198516915b828110156104bc578785015182556020948501946001909201910161049c565b50848210156104d957868401515f19600387901b60f8161c191681555b50505050600190811b01905550565b634e487b7160e01b5f52601160045260245ffd5b8082028115828204841417610513576105136104e8565b92915050565b80820180821115610513576105136104e8565b61136a806105395f395ff3fe60806040526004361061011b575f3560e01c80635dfbcff81161009d578063ad044f4911610062578063ad044f4914610307578063af157c191461031c578063d411eccb1461033d578063d6290cd714610352578063d7bb99ba14610373575f5ffd5b80635dfbcff8146102795780637284e4161461028d5780637d3d6522146102a157806395ee1221146102ca578063ac307fcf146102e9575f5ffd5b80633cb5d100116100e35780633cb5d100146101db57806342e94c90146101fa5780634a79d50c14610225578063590e1ae3146102465780635c7460d61461025a575f5ffd5b806302d05d3f1461011f57806321eff7fc1461015a57806324600fc31461019c57806329dcb0cf146101b257806338e771ab146101c7575b5f5ffd5b34801561012a575f5ffd5b505f5461013d906001600160a01b031681565b6040516001600160a01b0390911681526020015b60405180910390f35b348015610165575f5ffd5b5061018e610174366004611090565b6001600160a01b03165f9081526007602052604090205490565b604051908152602001610151565b3480156101a7575f5ffd5b506101b061037b565b005b3480156101bd575f5ffd5b5061018e60045481565b3480156101d2575f5ffd5b506101b0610547565b3480156101e6575f5ffd5b5061013d6101f53660046110bd565b610830565b348015610205575f5ffd5b5061018e610214366004611090565b60076020525f908152604090205481565b348015610230575f5ffd5b50610239610858565b6040516101519190611102565b348015610251575f5ffd5b506101b06108e4565b348015610265575f5ffd5b5060095461013d906001600160a01b031681565b348015610284575f5ffd5b5061018e610b12565b348015610298575f5ffd5b50610239610b7d565b3480156102ac575f5ffd5b506006546102ba9060ff1681565b6040519015158152602001610151565b3480156102d5575f5ffd5b506006546102ba9062010000900460ff1681565b3480156102f4575f5ffd5b506006546102ba90610100900460ff1681565b348015610312575f5ffd5b5061018e60055481565b348015610327575f5ffd5b50610330610b8a565b6040516101519190611114565b348015610348575f5ffd5b5061018e60035481565b34801561035d575f5ffd5b50610366610bea565b604051610151919061115f565b6101b0610dc4565b5f546001600160a01b031633146103ad5760405162461bcd60e51b81526004016103a49061120d565b60405180910390fd5b60065460ff166103ff5760405162461bcd60e51b815260206004820152601e60248201527f46756e64696e672074617267657420776173206e6f742072656163686564000060448201526064016103a4565b600654610100900460ff16156104515760405162461bcd60e51b8152602060048201526017602482015276233ab732399030b63932b0b23c903bb4ba34323930bbb760491b60448201526064016103a4565b6006805461ff0019166101001790555f80546040514792916001600160a01b03169083908381818185875af1925050503d805f81146104ab576040519150601f19603f3d011682016040523d82523d5f602084013e6104b0565b606091505b50509050806104f35760405162461bcd60e51b815260206004820152600f60248201526e151c985b9cd9995c8819985a5b1959608a1b60448201526064016103a4565b471561050157610501611254565b5f546040518381526001600160a01b03909116907feaff4b37086828766ad3268786972c0cd24259d4c87a80f9d3963a3c3d999b0d906020015b60405180910390a25050565b5f546001600160a01b031633146105705760405162461bcd60e51b81526004016103a49061120d565b60065460ff16156105935760405162461bcd60e51b81526004016103a490611268565b600654610100900460ff16156105e55760405162461bcd60e51b8152602060048201526017602482015276233ab732399030b63932b0b23c903bb4ba34323930bbb760491b60448201526064016103a4565b6006805462ff00001916620100001790555f80805b6008548110156107c6575f60088281548110610618576106186112ae565b5f9182526020808320909101546001600160a01b0316808352600790915260408220549092509081900361064d5750506107be565b6001600160a01b0382165f908152600760205260408120556106706001866112d6565b945061067c81856112d6565b60095460405163ba1b82df60e01b81526001600160a01b0385811660048301526024820185905292965091169063ba1b82df906044015f604051808303815f87803b1580156106c9575f5ffd5b505af11580156106db573d5f5f3e3d5ffd5b505050505f826001600160a01b0316826040515f6040518083038185875af1925050503d805f8114610728576040519150601f19603f3d011682016040523d82523d5f602084013e61072d565b606091505b50509050806107775760405162461bcd60e51b81526020600482015260166024820152751499599d5b99081d1c985b9cd9995c8819985a5b195960521b60448201526064016103a4565b826001600160a01b03167fa171b6942063c6f2800ce40a780edce37baa2b618571b11eedd1e69e626e7d76836040516107b291815260200190565b60405180910390a25050505b6001016105fa565b505f82116108165760405162461bcd60e51b815260206004820152601a60248201527f4e6f20636f6e747269627574696f6e7320746f20726566756e6400000000000060448201526064016103a4565b8060055f82825461082791906112ef565b90915550505050565b6008818154811061083f575f80fd5b5f918252602090912001546001600160a01b0316905081565b6001805461086590611302565b80601f016020809104026020016040519081016040528092919081815260200182805461089190611302565b80156108dc5780601f106108b3576101008083540402835291602001916108dc565b820191905f5260205f20905b8154815290600101906020018083116108bf57829003601f168201915b505050505081565b600454421015806108fd575060065462010000900460ff165b6109495760405162461bcd60e51b815260206004820152601a60248201527f43616d706169676e20686173206e6f7420656e6465642079657400000000000060448201526064016103a4565b60065460ff161561096c5760405162461bcd60e51b81526004016103a490611268565b335f908152600760205260409020546109c75760405162461bcd60e51b815260206004820152601960248201527f4e6f20636f6e747269627574696f6e20746f20726566756e640000000000000060448201526064016103a4565b335f90815260076020526040812080549082905560058054919283926109ee9084906112ef565b909155505060095460405163ba1b82df60e01b8152336004820152602481018390526001600160a01b039091169063ba1b82df906044015f604051808303815f87803b158015610a3c575f5ffd5b505af1158015610a4e573d5f5f3e3d5ffd5b50506040515f925033915083908381818185875af1925050503d805f8114610a91576040519150601f19603f3d011682016040523d82523d5f602084013e610a96565b606091505b5050905080610ae05760405162461bcd60e51b81526020600482015260166024820152751499599d5b99081d1c985b9cd9995c8819985a5b195960521b60448201526064016103a4565b60405182815233907fa171b6942063c6f2800ce40a780edce37baa2b618571b11eedd1e69e626e7d769060200161053b565b5f80805b600854811015610b77575f60075f60088481548110610b3757610b376112ae565b5f9182526020808320909101546001600160a01b031683528201929092526040019020541115610b6f57610b6c6001836112d6565b91505b600101610b16565b50919050565b6002805461086590611302565b60606008805480602002602001604051908101604052809291908181526020018280548015610be057602002820191905f5260205f20905b81546001600160a01b03168152600190910190602001808311610bc2575b5050505050905090565b610c416040518061012001604052805f6001600160a01b0316815260200160608152602001606081526020015f81526020015f81526020015f81526020015f151581526020015f151581526020015f151581525090565b6040805161012081019091525f546001600160a01b0316815260018054602083019190610c6d90611302565b80601f0160208091040260200160405190810160405280929190818152602001828054610c9990611302565b8015610ce45780601f10610cbb57610100808354040283529160200191610ce4565b820191905f5260205f20905b815481529060010190602001808311610cc757829003601f168201915b5050505050815260200160028054610cfb90611302565b80601f0160208091040260200160405190810160405280929190818152602001828054610d2790611302565b8015610d725780601f10610d4957610100808354040283529160200191610d72565b820191905f5260205f20905b815481529060010190602001808311610d5557829003601f168201915b505050918352505060035460208201526004546040820152600554606082015260065460ff8082161515608084015261010082048116151560a08401526201000090910416151560c090910152919050565b6004544210610e0a5760405162461bcd60e51b815260206004820152601260248201527110d85b5c185a59db881a185cc8195b99195960721b60448201526064016103a4565b60065462010000900460ff1615610e5b5760405162461bcd60e51b815260206004820152601560248201527410d85b5c185a59db881a5cc818d85b98d95b1b1959605a1b60448201526064016103a4565b345f03610eb65760405162461bcd60e51b815260206004820152602360248201527f436f6e747269627574696f6e206d75737420626520677265617465722074686160448201526206e20360ec1b60648201526084016103a4565b6009546001600160a01b0316610f0e5760405162461bcd60e51b815260206004820152601c60248201527f55736572207265676973747279206e6f7420636f6e666967757265640000000060448201526064016103a4565b335f908152600760205260408120549003610f6557600880546001810182555f919091527ff3f7a9fe364faab93b216da50a3214154f22a0a2b415b23a84c8169e8b636ee30180546001600160a01b031916331790555b335f9081526007602052604081208054349290610f839084906112d6565b925050819055503460055f828254610f9b91906112d6565b909155505060035460055410610fb9576006805460ff191660011790555b335f908152600760205260409020546005541015610fd957610fd9611254565b60065460ff161580610fef575060035460055410155b610ffb57610ffb611254565b6009546040516326af520f60e01b81523360048201523460248201526001600160a01b03909116906326af520f906044015f604051808303815f87803b158015611043575f5ffd5b505af1158015611055573d5f5f3e3d5ffd5b50506040513481523392507f6770260ea820d2f539364e7617e021543aaf6d192f2fd2a47c20db6bd99a4eb9915060200160405180910390a2565b5f602082840312156110a0575f5ffd5b81356001600160a01b03811681146110b6575f5ffd5b9392505050565b5f602082840312156110cd575f5ffd5b5035919050565b5f81518084528060208401602086015e5f602082860101526020601f19601f83011685010191505092915050565b602081525f6110b660208301846110d4565b602080825282518282018190525f918401906040840190835b818110156111545783516001600160a01b031683526020938401939092019160010161112d565b509095945050505050565b602081526111796020820183516001600160a01b03169052565b5f602083015161012060408401526111956101408401826110d4565b90506040840151601f198483030160608501526111b282826110d4565b91505060608401516080840152608084015160a084015260a084015160c084015260c08401516111e660e085018215159052565b5060e084015180151561010085015250610100840151801515610120850152509392505050565b60208082526027908201527f4f6e6c79207468652063616d706169676e2063726561746f722063616e2063616040820152666c6c207468697360c81b606082015260800190565b634e487b7160e01b5f52600160045260245ffd5b60208082526026908201527f46756e64696e67207461726765742077617320726561636865642c206e6f20726040820152656566756e647360d01b606082015260800190565b634e487b7160e01b5f52603260045260245ffd5b634e487b7160e01b5f52601160045260245ffd5b808201808211156112e9576112e96112c2565b92915050565b818103818111156112e9576112e96112c2565b600181811c9082168061131657607f821691505b602082108103610b7757634e487b7160e01b5f52602260045260245ffdfea26469706673582212206b37d621527c92657e2f06883a94cb48e4bc05ee82f1ac3efd8e80500dda8b5c64736f6c634300081c0033a2646970667358221220cdaafd9c48090e2627b144092244bc46453689d141e4324778b694659e6a7e6564736f6c634300081c0033",
  "linkReferences": {},
  "deployedLinkReferences": {},
  "immutableReferences": {},
  "inputSourceName": "project/contracts/CampaignFactory.sol",
  "buildInfoId": "solc-0_8_28-91592b83204b04e37555047bbf71cc376df30bda"
}