{
  "_format": "hh3-artifact-1",
  "contractName": "CampaignFactory",
  "sourceName": "contracts/CampaignFactory.sol",
  "abi": [
    {
      "inputs": [
        {
          "internalType": "address",
          "name": "_userRegistryAddress",
          "type": "address"
        }
      ],
      "stateMutability": "nonpayable",
      "type": "constructor"
    },
    {
      "anonymous": false,
      "inputs": [
        {
          "indexed": true,
          "internalType": "address",
          "name": "campaignAddress",
          "type": "address"
        },
        {
          "indexed": true,
          "internalType": "address",
          "name": "creator",
          "type": "address"
        },
        {
          "indexed": false,
          "internalType": "string",
          "name": "title",
          "type": "string"
        },
        {
          "indexed": false,
          "internalType": "uint256",
          "name": "fundingTarget",
          "type": "uint256"
        },
        {
          "indexed": false,
          "internalType": "uint256",
          "name": "durationInDays",
          "type": "uint256"
        }
      ],
      "name": "CampaignCreated",
      "type": "event"
    },
    {
      "inputs": [
        {
          "internalType": "uint256",
          "name": "",
          "type": "uint256"
        }
      ],
      "name": "campaigns",
      "outputs": [
        {
          "internalType": "address",
          "name": "",
          "type": "address"
        }
      ],
      "stateMutability": "view",
      "type": "function"
    },
    {
      "inputs": [
        {
          "internalType": "string",
          "name": "_title",
          "type": "string"
        },
        {
          "internalType": "string",
          "name": "_description",
          "type": "string"
        },
        {
          "internalType": "uint256",
          "name": "_fundingTarget",
          "type": "uint256"
        },
        {
          "internalType": "uint256",
          "name": "_durationInDays",
          "type": "uint256"
        }
      ],
      "name": "createCampaign",
      "outputs": [
        {
          "internalType": "address",
          "name": "",
          "type": "address"
        }
      ],
      "stateMutability": "nonpayable",
      "type": "function"
    },
    {
      "inputs": [],
      "name": "getCampaignCount",
      "outputs": [
        {
          "internalType": "uint256",
          "name": "",
          "type": "uint256"
        }
      ],
      "stateMutability": "view",
      "type": "function"
    },
    {
      "inputs": [],
      "name": "getCampaigns",
      "outputs": [
        {
          "internalType": "address[]",
          "name": "",
          "type": "address[]"
        }
      ],
      "stateMutability": "view",
      "type": "function"
    },
    {
      "inputs": [
        {
          "internalType": "address",
          "name": "_user",
          "type": "address"
        }
      ],
      "name": "getUserCampaigns",
      "outputs": [
        {
          "internalType": "address[]",
          "name": "",
          "type": "address[]"
        }
      ],
      "stateMutability": "view",
      "type": "function"
    },
    {
      "inputs": [
        {
          "internalType": "address",
          "name": "",
          "type": "address"
        },
        {
          "internalType": "uint256",
          "name": "",
          "type": "uint256"
        }
      ],
      "name": "userCampaigns",
      "outputs": [
        {
          "internalType": "address",
          "name": "",
          "type": "address"
        }
      ],
      "stateMutability": "view",
      "type": "function"
    },
    {
      "inputs": [],
      "name": "userRegistryAddress",
      "outputs": [
        {
          "internalType": "address",
          "name": "",
          "type": "address"
        }
      ],
      "stateMutability": "view",
      "type": "function"
    }
  ],
  "bytecode": "0x6080604052348015600e575f5ffd5b50604051611d93380380611d93833981016040819052602b9160a8565b6001600160a01b03811660845760405162461bcd60e51b815260206004820152601860248201527f496e76616c696420726567697374727920616464726573730000000000000000604482015260640160405180910390fd5b600280546001600160a01b0319166001600160a01b039290921691909117905560d3565b5f6020828403121560b7575f5ffd5b81516001600160a01b038116811460cc575f5ffd5b9392505050565b611cb3806100e05f395ff3fe608060405234801561000f575f5ffd5b506004361061007a575f3560e01c80636caa9218116100585780636caa9218146100d4578063a1e5084c146100e4578063a318f26914610104578063a6b0363314610117575f5ffd5b8063141961bc1461007e57806319ac74bd146100ae5780633f39eaa1146100c1575b5f5ffd5b61009161008c366004610506565b61011f565b6040516001600160a01b0390911681526020015b60405180910390f35b6100916100bc366004610538565b610146565b600254610091906001600160a01b031681565b5f546040519081526020016100a5565b6100f76100f2366004610560565b61017a565b6040516100a59190610580565b61009161011236600461066a565b6101ed565b6100f761049a565b5f818154811061012d575f80fd5b5f918252602090912001546001600160a01b0316905081565b6001602052815f5260405f20818154811061015f575f80fd5b5f918252602090912001546001600160a01b03169150829050565b6001600160a01b0381165f908152600160209081526040918290208054835181840281018401909452808452606093928301828280156101e157602002820191905f5260205f20905b81546001600160a01b031681526001909101906020018083116101c3575b50505050509050919050565b5f84515f0361023b5760405162461bcd60e51b81526020600482015260156024820152745469746c652063616e6e6f7420626520656d70747960581b60448201526064015b60405180910390fd5b825f036102985760405162461bcd60e51b815260206004820152602560248201527f46756e64696e6720746172676574206d75737420626520677265617465722074604482015264068616e20360dc1b6064820152608401610232565b815f036102e75760405162461bcd60e51b815260206004820152601f60248201527f4475726174696f6e206d7573742062652067726561746572207468616e2030006044820152606401610232565b5f338686868660025f9054906101000a90046001600160a01b031660405161030e906104f9565b61031d9695949392919061070c565b604051809103905ff080158015610336573d5f5f3e3d5ffd5b505f8054600181810183557f290decd9548b62a8d60345a988386fc84ba6bc95484008f6362f93160ef3e56390910180546001600160a01b0385166001600160a01b031991821681179092553384526020838152604085208054808601825590865290852001805490911682179055825493945084939092916103b891610769565b815481106103c8576103c861078e565b5f918252602090912001546001600160a01b0316146103e9576103e96107a2565b335f90815260016020819052604090912080546001600160a01b0384169261041091610769565b815481106104205761042061078e565b5f918252602090912001546001600160a01b031614610441576104416107a2565b336001600160a01b0316816001600160a01b03167f810c1f0481c76c27bfb99d47b443b405e6f4d247fb07302759cb36d58742d07f898888604051610488939291906107b6565b60405180910390a39695505050505050565b60605f8054806020026020016040519081016040528092919081815260200182805480156104ef57602002820191905f5260205f20905b81546001600160a01b031681526001909101906020018083116104d1575b5050505050905090565b6114a3806107db83390190565b5f60208284031215610516575f5ffd5b5035919050565b80356001600160a01b0381168114610533575f5ffd5b919050565b5f5f60408385031215610549575f5ffd5b6105528361051d565b946020939093013593505050565b5f60208284031215610570575f5ffd5b6105798261051d565b9392505050565b602080825282518282018190525f918401906040840190835b818110156105c05783516001600160a01b0316835260209384019390920191600101610599565b509095945050505050565b634e487b7160e01b5f52604160045260245ffd5b5f82601f8301126105ee575f5ffd5b813567ffffffffffffffff811115610608576106086105cb565b604051601f8201601f19908116603f0116810167ffffffffffffffff81118282101715610637576106376105cb565b60405281815283820160200185101561064e575f5ffd5b816020850160208301375f918101602001919091529392505050565b5f5f5f5f6080858703121561067d575f5ffd5b843567ffffffffffffffff811115610693575f5ffd5b61069f878288016105df565b945050602085013567ffffffffffffffff8111156106bb575f5ffd5b6106c7878288016105df565b949794965050505060408301359260600135919050565b5f81518084528060208401602086015e5f602082860101526020601f19601f83011685010191505092915050565b6001600160a01b038716815260c0602082018190525f9061072f908301886106de565b828103604084015261074181886106de565b6060840196909652505060808101929092526001600160a01b031660a0909101529392505050565b8181038181111561078857634e487b7160e01b5f52601160045260245ffd5b92915050565b634e487b7160e01b5f52603260045260245ffd5b634e487b7160e01b5f52600160045260245ffd5b606081525f6107c860608301866106de565b6020830194909452506040015291905056fe608060405234801561000f575f5ffd5b506040516114a33803806114a383398101604081905261002e91610311565b6001600160a01b0386166100895760405162461bcd60e51b815260206004820152601760248201527f496e76616c69642063726561746f72206164647265737300000000000000000060448201526064015b60405180910390fd5b5f8551116100d95760405162461bcd60e51b815260206004820152601560248201527f5469746c652063616e6e6f7420626520656d70747900000000000000000000006044820152606401610080565b5f83116101365760405162461bcd60e51b815260206004820152602560248201527f46756e64696e6720746172676574206d75737420626520677265617465722074604482015264068616e20360dc1b6064820152608401610080565b5f82116101855760405162461bcd60e51b815260206004820152601f60248201527f4475726174696f6e206d7573742062652067726561746572207468616e2030006044820152606401610080565b6001600160a01b0381166101db5760405162461bcd60e51b815260206004820152601860248201527f496e76616c6964207265676973747279206164647265737300000000000000006044820152606401610080565b5f80546001600160a01b0319166001600160a01b0388161790556001610201868261042e565b50600261020e858261042e565b50600383905561022182620151806104fc565b61022b9042610519565b600455600980546001600160a01b0319166001600160a01b03929092169190911790555061052c9350505050565b80516001600160a01b038116811461026f575f5ffd5b919050565b634e487b7160e01b5f52604160045260245ffd5b5f82601f830112610297575f5ffd5b81516001600160401b038111156102b0576102b0610274565b604051601f8201601f19908116603f011681016001600160401b03811182821017156102de576102de610274565b6040528181528382016020018510156102f5575f5ffd5b8160208501602083015e5f918101602001919091529392505050565b5f5f5f5f5f5f60c08789031215610326575f5ffd5b61032f87610259565b60208801519096506001600160401b0381111561034a575f5ffd5b61035689828a01610288565b604089015190965090506001600160401b03811115610373575f5ffd5b61037f89828a01610288565b606089015160808a01519196509450925061039e905060a08801610259565b90509295509295509295565b600181811c908216806103be57607f821691505b6020821081036103dc57634e487b7160e01b5f52602260045260245ffd5b50919050565b601f82111561042957805f5260205f20601f840160051c810160208510156104075750805b601f840160051c820191505b81811015610426575f8155600101610413565b50505b505050565b81516001600160401b0381111561044757610447610274565b61045b8161045584546103aa565b846103e2565b6020601f82116001811461048d575f83156104765750848201515b5f19600385901b1c1916600184901b178455610426565b5f84815260208120601f198516915b828110156104bc578785015182556020948501946001909201910161049c565b50848210156104d957868401515f19600387901b60f8161c191681555b50505050600190811b01905550565b634e487b7160e01b5f52601160045260245ffd5b8082028115828204841417610513576105136104e8565b92915050565b80820180821115610513576105136104e8565b610f6a806105395f395ff3fe608060405260043610610105575f3560e01c80637284e41611610092578063ad044f4911610062578063ad044f49146102c9578063af157c19146102de578063d411eccb146102ff578063d6290cd714610314578063d7bb99ba14610335575f5ffd5b80637284e4161461024f5780637d3d65221461026357806395ee12211461028c578063ac307fcf146102ab575f5ffd5b80633cb5d100116100d85780633cb5d100146101b157806342e94c90146101d05780634a79d50c146101fb578063590e1ae31461021c5780635c7460d614610230575f5ffd5b806302d05d3f1461010957806321eff7fc1461014457806324600fc31461018657806329dcb0cf1461019c575b5f5ffd5b348015610114575f5ffd5b505f54610127906001600160a01b031681565b6040516001600160a01b0390911681526020015b60405180910390f35b34801561014f575f5ffd5b5061017861015e366004610d46565b6001600160a01b03165f9081526007602052604090205490565b60405190815260200161013b565b348015610191575f5ffd5b5061019a61033d565b005b3480156101a7575f5ffd5b5061017860045481565b3480156101bc575f5ffd5b506101276101cb366004610d73565b61059d565b3480156101db575f5ffd5b506101786101ea366004610d46565b60076020525f908152604090205481565b348015610206575f5ffd5b5061020f6105c5565b60405161013b9190610db8565b348015610227575f5ffd5b5061019a610651565b34801561023b575f5ffd5b50600954610127906001600160a01b031681565b34801561025a575f5ffd5b5061020f610833565b34801561026e575f5ffd5b5060065461027c9060ff1681565b604051901515815260200161013b565b348015610297575f5ffd5b5060065461027c9062010000900460ff1681565b3480156102b6575f5ffd5b5060065461027c90610100900460ff1681565b3480156102d4575f5ffd5b5061017860055481565b3480156102e9575f5ffd5b506102f2610840565b60405161013b9190610dca565b34801561030a575f5ffd5b5061017860035481565b34801561031f575f5ffd5b506103286108a0565b60405161013b9190610e15565b61019a610a7a565b5f546001600160a01b031633146103ab5760405162461bcd60e51b815260206004820152602760248201527f4f6e6c79207468652063616d706169676e2063726561746f722063616e2063616044820152666c6c207468697360c81b60648201526084015b60405180910390fd5b6004544210156103fd5760405162461bcd60e51b815260206004820152601a60248201527f43616d706169676e20686173206e6f7420656e6465642079657400000000000060448201526064016103a2565b60065460ff1661044f5760405162461bcd60e51b815260206004820152601e60248201527f46756e64696e672074617267657420776173206e6f742072656163686564000060448201526064016103a2565b600654610100900460ff16156104a75760405162461bcd60e51b815260206004820152601760248201527f46756e647320616c72656164792077697468647261776e00000000000000000060448201526064016103a2565b6006805461ff0019166101001790555f80546040514792916001600160a01b03169083908381818185875af1925050503d805f8114610501576040519150601f19603f3d011682016040523d82523d5f602084013e610506565b606091505b50509050806105495760405162461bcd60e51b815260206004820152600f60248201526e151c985b9cd9995c8819985a5b1959608a1b60448201526064016103a2565b471561055757610557610ec3565b5f546040518381526001600160a01b03909116907feaff4b37086828766ad3268786972c0cd24259d4c87a80f9d3963a3c3d999b0d906020015b60405180910390a25050565b600881815481106105ac575f80fd5b5f918252602090912001546001600160a01b0316905081565b600180546105d290610ed7565b80601f01602080910402602001604051908101604052809291908181526020018280546105fe90610ed7565b80156106495780601f1061062057610100808354040283529160200191610649565b820191905f5260205f20905b81548152906001019060200180831161062c57829003601f168201915b505050505081565b6004544210156106a35760405162461bcd60e51b815260206004820152601a60248201527f43616d706169676e20686173206e6f7420656e6465642079657400000000000060448201526064016103a2565b60065460ff16156107055760405162461bcd60e51b815260206004820152602660248201527f46756e64696e67207461726765742077617320726561636865642c206e6f20726044820152656566756e647360d01b60648201526084016103a2565b335f908152600760205260409020546107605760405162461bcd60e51b815260206004820152601960248201527f4e6f20636f6e747269627574696f6e20746f20726566756e640000000000000060448201526064016103a2565b335f81815260076020526040808220805490839055905190929083908381818185875af1925050503d805f81146107b2576040519150601f19603f3d011682016040523d82523d5f602084013e6107b7565b606091505b50509050806108015760405162461bcd60e51b81526020600482015260166024820152751499599d5b99081d1c985b9cd9995c8819985a5b195960521b60448201526064016103a2565b60405182815233907fa171b6942063c6f2800ce40a780edce37baa2b618571b11eedd1e69e626e7d7690602001610591565b600280546105d290610ed7565b6060600880548060200260200160405190810160405280929190818152602001828054801561089657602002820191905f5260205f20905b81546001600160a01b03168152600190910190602001808311610878575b5050505050905090565b6108f76040518061012001604052805f6001600160a01b0316815260200160608152602001606081526020015f81526020015f81526020015f81526020015f151581526020015f151581526020015f151581525090565b6040805161012081019091525f546001600160a01b031681526001805460208301919061092390610ed7565b80601f016020809104026020016040519081016040528092919081815260200182805461094f90610ed7565b801561099a5780601f106109715761010080835404028352916020019161099a565b820191905f5260205f20905b81548152906001019060200180831161097d57829003601f168201915b50505050508152602001600280546109b190610ed7565b80601f01602080910402602001604051908101604052809291908181526020018280546109dd90610ed7565b8015610a285780601f106109ff57610100808354040283529160200191610a28565b820191905f5260205f20905b815481529060010190602001808311610a0b57829003601f168201915b505050918352505060035460208201526004546040820152600554606082015260065460ff8082161515608084015261010082048116151560a08401526201000090910416151560c090910152919050565b6004544210610ac05760405162461bcd60e51b815260206004820152601260248201527110d85b5c185a59db881a185cc8195b99195960721b60448201526064016103a2565b60065462010000900460ff1615610b115760405162461bcd60e51b815260206004820152601560248201527410d85b5c185a59db881a5cc818d85b98d95b1b1959605a1b60448201526064016103a2565b345f03610b6c5760405162461bcd60e51b815260206004820152602360248201527f436f6e747269627574696f6e206d75737420626520677265617465722074686160448201526206e20360ec1b60648201526084016103a2565b6009546001600160a01b0316610bc45760405162461bcd60e51b815260206004820152601c60248201527f55736572207265676973747279206e6f7420636f6e666967757265640000000060448201526064016103a2565b335f908152600760205260408120549003610c1b57600880546001810182555f919091527ff3f7a9fe364faab93b216da50a3214154f22a0a2b415b23a84c8169e8b636ee30180546001600160a01b031916331790555b335f9081526007602052604081208054349290610c39908490610f0f565b925050819055503460055f828254610c519190610f0f565b909155505060035460055410610c6f576006805460ff191660011790555b335f908152600760205260409020546005541015610c8f57610c8f610ec3565b60065460ff161580610ca5575060035460055410155b610cb157610cb1610ec3565b6009546040516326af520f60e01b81523360048201523460248201526001600160a01b03909116906326af520f906044015f604051808303815f87803b158015610cf9575f5ffd5b505af1158015610d0b573d5f5f3e3d5ffd5b50506040513481523392507f6770260ea820d2f539364e7617e021543aaf6d192f2fd2a47c20db6bd99a4eb9915060200160405180910390a2565b5f60208284031215610d56575f5ffd5b81356001600160a01b0381168114610d6c575f5ffd5b9392505050565b5f60208284031215610d83575f5ffd5b5035919050565b5f81518084528060208401602086015e5f602082860101526020601f19601f83011685010191505092915050565b602081525f610d6c6020830184610d8a565b602080825282518282018190525f918401906040840190835b81811015610e0a5783516001600160a01b0316835260209384019390920191600101610de3565b509095945050505050565b60208152610e2f6020820183516001600160a01b03169052565b5f60208301516101206040840152610e4b610140840182610d8a565b90506040840151601f19848303016060850152610e688282610d8a565b91505060608401516080840152608084015160a084015260a084015160c084015260c0840151610e9c60e085018215159052565b5060e084015180151561010085015250610100840151801515610120850152509392505050565b634e487b7160e01b5f52600160045260245ffd5b600181811c90821680610eeb57607f821691505b602082108103610f0957634e487b7160e01b5f52602260045260245ffd5b50919050565b80820180821115610f2e57634e487b7160e01b5f52601160045260245ffd5b9291505056fea26469706673582212204c16a2e2d0477df29e98bec711050f8f8fe2175bc251091df1d9c33fedad3a0164736f6c634300081c0033a2646970667358221220d0d453cc5586963cd7c706a56fe19b3325929b60383037159a14358c14f0659564736f6c634300081c0033",
  "linkReferences": {},
  "deployedLinkReferences": {},
  "immutableReferences": {},
  "inputSourceName": "project/contracts/CampaignFactory.sol",
  "buildInfoId": "solc-0_8_28-b179f1c958469c7ae71d04393efb700f87a15542"
}