{
  "_format": "hh3-artifact-1",
  "contractName": "CampaignFactory",
  "sourceName": "contracts/CampaignFactory.sol",
  "abi": [
    {
      "anonymous": false,
      "inputs": [
        {
          "indexed": true,
          "internalType": "address",
          "name": "campaignAddress",
          "type": "address"
        },
        {
          "indexed": true,
          "internalType": "address",
          "name": "creator",
          "type": "address"
        },
        {
          "indexed": false,
          "internalType": "string",
          "name": "title",
          "type": "string"
        },
        {
          "indexed": false,
          "internalType": "uint256",
          "name": "fundingTarget",
          "type": "uint256"
        },
        {
          "indexed": false,
          "internalType": "uint256",
          "name": "durationInDays",
          "type": "uint256"
        }
      ],
      "name": "CampaignCreated",
      "type": "event"
    },
    {
      "inputs": [
        {
          "internalType": "uint256",
          "name": "",
          "type": "uint256"
        }
      ],
      "name": "campaigns",
      "outputs": [
        {
          "internalType": "address",
          "name": "",
          "type": "address"
        }
      ],
      "stateMutability": "view",
      "type": "function"
    },
    {
      "inputs": [
        {
          "internalType": "string",
          "name": "_title",
          "type": "string"
        },
        {
          "internalType": "string",
          "name": "_description",
          "type": "string"
        },
        {
          "internalType": "uint256",
          "name": "_fundingTarget",
          "type": "uint256"
        },
        {
          "internalType": "uint256",
          "name": "_durationInDays",
          "type": "uint256"
        }
      ],
      "name": "createCampaign",
      "outputs": [
        {
          "internalType": "address",
          "name": "",
          "type": "address"
        }
      ],
      "stateMutability": "nonpayable",
      "type": "function"
    },
    {
      "inputs": [],
      "name": "getCampaignCount",
      "outputs": [
        {
          "internalType": "uint256",
          "name": "",
          "type": "uint256"
        }
      ],
      "stateMutability": "view",
      "type": "function"
    },
    {
      "inputs": [],
      "name": "getCampaigns",
      "outputs": [
        {
          "internalType": "address[]",
          "name": "",
          "type": "address[]"
        }
      ],
      "stateMutability": "view",
      "type": "function"
    },
    {
      "inputs": [
        {
          "internalType": "address",
          "name": "_user",
          "type": "address"
        }
      ],
      "name": "getUserCampaigns",
      "outputs": [
        {
          "internalType": "address[]",
          "name": "",
          "type": "address[]"
        }
      ],
      "stateMutability": "view",
      "type": "function"
    },
    {
      "inputs": [
        {
          "internalType": "address",
          "name": "",
          "type": "address"
        },
        {
          "internalType": "uint256",
          "name": "",
          "type": "uint256"
        }
      ],
      "name": "userCampaigns",
      "outputs": [
        {
          "internalType": "address",
          "name": "",
          "type": "address"
        }
      ],
      "stateMutability": "view",
      "type": "function"
    }
  ],
  "bytecode": "0x6080604052348015600e575f5ffd5b506118978061001c5f395ff3fe608060405234801561000f575f5ffd5b5060043610610060575f3560e01c8063141961bc1461006457806319ac74bd146100945780636caa9218146100a7578063a1e5084c146100b7578063a318f269146100d7578063a6b03633146100ea575b5f5ffd5b610077610072366004610324565b6100f2565b6040516001600160a01b0390911681526020015b60405180910390f35b6100776100a2366004610356565b610119565b5f5460405190815260200161008b565b6100ca6100c536600461037e565b61014d565b60405161008b919061039e565b6100776100e5366004610488565b6101c0565b6100ca6102b8565b5f8181548110610100575f80fd5b5f918252602090912001546001600160a01b0316905081565b6001602052815f5260405f208181548110610132575f80fd5b5f918252602090912001546001600160a01b03169150829050565b6001600160a01b0381165f908152600160209081526040918290208054835181840281018401909452808452606093928301828280156101b457602002820191905f5260205f20905b81546001600160a01b03168152600190910190602001808311610196575b50505050509050919050565b5f5f33868686866040516101d390610317565b6101e195949392919061052a565b604051809103905ff0801580156101fa573d5f5f3e3d5ffd5b505f8054600181810183557f290decd9548b62a8d60345a988386fc84ba6bc95484008f6362f93160ef3e56390910180546001600160a01b0385166001600160a01b0319918216811790925533808552602084815260408087208054968701815587529520909301805490911682179055915192935083929091907f810c1f0481c76c27bfb99d47b443b405e6f4d247fb07302759cb36d58742d07f906102a6908b908a908a90610574565b60405180910390a39695505050505050565b60605f80548060200260200160405190810160405280929190818152602001828054801561030d57602002820191905f5260205f20905b81546001600160a01b031681526001909101906020018083116102ef575b5050505050905090565b6112c98061059983390190565b5f60208284031215610334575f5ffd5b5035919050565b80356001600160a01b0381168114610351575f5ffd5b919050565b5f5f60408385031215610367575f5ffd5b6103708361033b565b946020939093013593505050565b5f6020828403121561038e575f5ffd5b6103978261033b565b9392505050565b602080825282518282018190525f918401906040840190835b818110156103de5783516001600160a01b03168352602093840193909201916001016103b7565b509095945050505050565b634e487b7160e01b5f52604160045260245ffd5b5f82601f83011261040c575f5ffd5b813567ffffffffffffffff811115610426576104266103e9565b604051601f8201601f19908116603f0116810167ffffffffffffffff81118282101715610455576104556103e9565b60405281815283820160200185101561046c575f5ffd5b816020850160208301375f918101602001919091529392505050565b5f5f5f5f6080858703121561049b575f5ffd5b843567ffffffffffffffff8111156104b1575f5ffd5b6104bd878288016103fd565b945050602085013567ffffffffffffffff8111156104d9575f5ffd5b6104e5878288016103fd565b949794965050505060408301359260600135919050565b5f81518084528060208401602086015e5f602082860101526020601f19601f83011685010191505092915050565b6001600160a01b038616815260a0602082018190525f9061054d908301876104fc565b828103604084015261055f81876104fc565b60608401959095525050608001529392505050565b606081525f61058660608301866104fc565b6020830194909452506040015291905056fe608060405234801561000f575f5ffd5b506040516112c93803806112c983398101604081905261002e91610280565b6001600160a01b0385166100895760405162461bcd60e51b815260206004820152601760248201527f496e76616c69642063726561746f72206164647265737300000000000000000060448201526064015b60405180910390fd5b5f8451116100d95760405162461bcd60e51b815260206004820152601560248201527f5469746c652063616e6e6f7420626520656d70747900000000000000000000006044820152606401610080565b5f82116101365760405162461bcd60e51b815260206004820152602560248201527f46756e64696e6720746172676574206d75737420626520677265617465722074604482015264068616e20360dc1b6064820152608401610080565b5f81116101855760405162461bcd60e51b815260206004820152601f60248201527f4475726174696f6e206d7573742062652067726561746572207468616e2030006044820152606401610080565b5f80546001600160a01b0319166001600160a01b03871617905560016101ab8582610398565b5060026101b88482610398565b5060038290556101cb8162015180610466565b6101d59042610483565b600455506104969350505050565b634e487b7160e01b5f52604160045260245ffd5b5f82601f830112610206575f5ffd5b81516001600160401b0381111561021f5761021f6101e3565b604051601f8201601f19908116603f011681016001600160401b038111828210171561024d5761024d6101e3565b604052818152838201602001851015610264575f5ffd5b8160208501602083015e5f918101602001919091529392505050565b5f5f5f5f5f60a08688031215610294575f5ffd5b85516001600160a01b03811681146102aa575f5ffd5b60208701519095506001600160401b038111156102c5575f5ffd5b6102d1888289016101f7565b604088015190955090506001600160401b038111156102ee575f5ffd5b6102fa888289016101f7565b606088015160809098015196999598509695949350505050565b600181811c9082168061032857607f821691505b60208210810361034657634e487b7160e01b5f52602260045260245ffd5b50919050565b601f82111561039357805f5260205f20601f840160051c810160208510156103715750805b601f840160051c820191505b81811015610390575f815560010161037d565b50505b505050565b81516001600160401b038111156103b1576103b16101e3565b6103c5816103bf8454610314565b8461034c565b6020601f8211600181146103f7575f83156103e05750848201515b5f19600385901b1c1916600184901b178455610390565b5f84815260208120601f198516915b828110156104265787850151825560209485019460019092019101610406565b508482101561044357868401515f19600387901b60f8161c191681555b50505050600190811b01905550565b634e487b7160e01b5f52601160045260245ffd5b808202811582820484141761047d5761047d610452565b92915050565b8082018082111561047d5761047d610452565b610e26806104a35f395ff3fe6080604052600436106100fa575f3560e01c80637284e41611610092578063ad044f4911610062578063ad044f491461029f578063af157c19146102b4578063d411eccb146102d5578063d6290cd7146102ea578063d7bb99ba1461030b575f5ffd5b80637284e416146102255780637d3d65221461023957806395ee122114610262578063ac307fcf14610281575f5ffd5b80633cb5d100116100cd5780633cb5d100146101a657806342e94c90146101c55780634a79d50c146101f0578063590e1ae314610211575f5ffd5b806302d05d3f146100fe57806321eff7fc1461013957806324600fc31461017b57806329dcb0cf14610191575b5f5ffd5b348015610109575f5ffd5b505f5461011c906001600160a01b031681565b6040516001600160a01b0390911681526020015b60405180910390f35b348015610144575f5ffd5b5061016d610153366004610c16565b6001600160a01b03165f9081526007602052604090205490565b604051908152602001610130565b348015610186575f5ffd5b5061018f610313565b005b34801561019c575f5ffd5b5061016d60045481565b3480156101b1575f5ffd5b5061011c6101c0366004610c43565b610565565b3480156101d0575f5ffd5b5061016d6101df366004610c16565b60076020525f908152604090205481565b3480156101fb575f5ffd5b5061020461058d565b6040516101309190610c88565b34801561021c575f5ffd5b5061018f610619565b348015610230575f5ffd5b506102046107fb565b348015610244575f5ffd5b506006546102529060ff1681565b6040519015158152602001610130565b34801561026d575f5ffd5b506006546102529062010000900460ff1681565b34801561028c575f5ffd5b5060065461025290610100900460ff1681565b3480156102aa575f5ffd5b5061016d60055481565b3480156102bf575f5ffd5b506102c8610808565b6040516101309190610c9a565b3480156102e0575f5ffd5b5061016d60035481565b3480156102f5575f5ffd5b506102fe610868565b6040516101309190610ce5565b61018f610a42565b5f546001600160a01b031633146103815760405162461bcd60e51b815260206004820152602760248201527f4f6e6c79207468652063616d706169676e2063726561746f722063616e2063616044820152666c6c207468697360c81b60648201526084015b60405180910390fd5b6004544210156103d35760405162461bcd60e51b815260206004820152601a60248201527f43616d706169676e20686173206e6f7420656e646564207965740000000000006044820152606401610378565b60065460ff166104255760405162461bcd60e51b815260206004820152601e60248201527f46756e64696e672074617267657420776173206e6f74207265616368656400006044820152606401610378565b600654610100900460ff161561047d5760405162461bcd60e51b815260206004820152601760248201527f46756e647320616c72656164792077697468647261776e0000000000000000006044820152606401610378565b6006805461ff0019166101001790555f80546040514792916001600160a01b03169083908381818185875af1925050503d805f81146104d7576040519150601f19603f3d011682016040523d82523d5f602084013e6104dc565b606091505b505090508061051f5760405162461bcd60e51b815260206004820152600f60248201526e151c985b9cd9995c8819985a5b1959608a1b6044820152606401610378565b5f546040518381526001600160a01b03909116907feaff4b37086828766ad3268786972c0cd24259d4c87a80f9d3963a3c3d999b0d906020015b60405180910390a25050565b60088181548110610574575f80fd5b5f918252602090912001546001600160a01b0316905081565b6001805461059a90610d93565b80601f01602080910402602001604051908101604052809291908181526020018280546105c690610d93565b80156106115780601f106105e857610100808354040283529160200191610611565b820191905f5260205f20905b8154815290600101906020018083116105f457829003601f168201915b505050505081565b60045442101561066b5760405162461bcd60e51b815260206004820152601a60248201527f43616d706169676e20686173206e6f7420656e646564207965740000000000006044820152606401610378565b60065460ff16156106cd5760405162461bcd60e51b815260206004820152602660248201527f46756e64696e67207461726765742077617320726561636865642c206e6f20726044820152656566756e647360d01b6064820152608401610378565b335f908152600760205260409020546107285760405162461bcd60e51b815260206004820152601960248201527f4e6f20636f6e747269627574696f6e20746f20726566756e64000000000000006044820152606401610378565b335f81815260076020526040808220805490839055905190929083908381818185875af1925050503d805f811461077a576040519150601f19603f3d011682016040523d82523d5f602084013e61077f565b606091505b50509050806107c95760405162461bcd60e51b81526020600482015260166024820152751499599d5b99081d1c985b9cd9995c8819985a5b195960521b6044820152606401610378565b60405182815233907fa171b6942063c6f2800ce40a780edce37baa2b618571b11eedd1e69e626e7d7690602001610559565b6002805461059a90610d93565b6060600880548060200260200160405190810160405280929190818152602001828054801561085e57602002820191905f5260205f20905b81546001600160a01b03168152600190910190602001808311610840575b5050505050905090565b6108bf6040518061012001604052805f6001600160a01b0316815260200160608152602001606081526020015f81526020015f81526020015f81526020015f151581526020015f151581526020015f151581525090565b6040805161012081019091525f546001600160a01b03168152600180546020830191906108eb90610d93565b80601f016020809104026020016040519081016040528092919081815260200182805461091790610d93565b80156109625780601f1061093957610100808354040283529160200191610962565b820191905f5260205f20905b81548152906001019060200180831161094557829003601f168201915b505050505081526020016002805461097990610d93565b80601f01602080910402602001604051908101604052809291908181526020018280546109a590610d93565b80156109f05780601f106109c7576101008083540402835291602001916109f0565b820191905f5260205f20905b8154815290600101906020018083116109d357829003601f168201915b505050918352505060035460208201526004546040820152600554606082015260065460ff8082161515608084015261010082048116151560a08401526201000090910416151560c090910152919050565b6004544210610a885760405162461bcd60e51b815260206004820152601260248201527110d85b5c185a59db881a185cc8195b99195960721b6044820152606401610378565b60065462010000900460ff1615610ad95760405162461bcd60e51b815260206004820152601560248201527410d85b5c185a59db881a5cc818d85b98d95b1b1959605a1b6044820152606401610378565b5f3411610b345760405162461bcd60e51b815260206004820152602360248201527f436f6e747269627574696f6e206d75737420626520677265617465722074686160448201526206e20360ec1b6064820152608401610378565b335f908152600760205260408120549003610b8b57600880546001810182555f919091527ff3f7a9fe364faab93b216da50a3214154f22a0a2b415b23a84c8169e8b636ee30180546001600160a01b031916331790555b335f9081526007602052604081208054349290610ba9908490610dcb565b925050819055503460055f828254610bc19190610dcb565b909155505060035460055410610bdf576006805460ff191660011790555b60405134815233907f6770260ea820d2f539364e7617e021543aaf6d192f2fd2a47c20db6bd99a4eb99060200160405180910390a2565b5f60208284031215610c26575f5ffd5b81356001600160a01b0381168114610c3c575f5ffd5b9392505050565b5f60208284031215610c53575f5ffd5b5035919050565b5f81518084528060208401602086015e5f602082860101526020601f19601f83011685010191505092915050565b602081525f610c3c6020830184610c5a565b602080825282518282018190525f918401906040840190835b81811015610cda5783516001600160a01b0316835260209384019390920191600101610cb3565b509095945050505050565b60208152610cff6020820183516001600160a01b03169052565b5f60208301516101206040840152610d1b610140840182610c5a565b90506040840151601f19848303016060850152610d388282610c5a565b91505060608401516080840152608084015160a084015260a084015160c084015260c0840151610d6c60e085018215159052565b5060e084015180151561010085015250610100840151801515610120850152509392505050565b600181811c90821680610da757607f821691505b602082108103610dc557634e487b7160e01b5f52602260045260245ffd5b50919050565b80820180821115610dea57634e487b7160e01b5f52601160045260245ffd5b9291505056fea264697066735822122047d710f0e0c44d46411559e33580163952fd1a57127e000f1eafdf35fd2bc8db64736f6c634300081c0033a2646970667358221220dbbc2c1cdbe4f9dc6cfd6bf06041f2823af5abafa591b43f66030d1d412d581a64736f6c634300081c0033",
  "linkReferences": {},
  "deployedLinkReferences": {},
  "immutableReferences": {},
  "inputSourceName": "project/contracts/CampaignFactory.sol",
  "buildInfoId": "solc-0_8_28-aa02122c65fda46c9df56b9d972ee1ab478b63a4"
}