{
  "_format": "hh3-artifact-1",
  "contractName": "RewardManager",
  "sourceName": "contracts/RewardManager.sol",
  "abi": [
    {
      "inputs": [
        {
          "internalType": "address",
          "name": "_tokenAddress",
          "type": "address"
        },
        {
          "internalType": "address",
          "name": "_registryAddress",
          "type": "address"
        }
      ],
      "stateMutability": "nonpayable",
      "type": "constructor"
    },
    {
      "anonymous": false,
      "inputs": [
        {
          "indexed": true,
          "internalType": "address",
          "name": "user",
          "type": "address"
        },
        {
          "indexed": false,
          "internalType": "uint256",
          "name": "amount",
          "type": "uint256"
        }
      ],
      "name": "RewardClaimed",
      "type": "event"
    },
    {
      "anonymous": false,
      "inputs": [
        {
          "indexed": true,
          "internalType": "address",
          "name": "user",
          "type": "address"
        },
        {
          "indexed": false,
          "internalType": "uint256",
          "name": "amount",
          "type": "uint256"
        }
      ],
      "name": "RewardRevoked",
      "type": "event"
    },
    {
      "inputs": [],
      "name": "claimRewards",
      "outputs": [],
      "stateMutability": "nonpayable",
      "type": "function"
    },
    {
      "inputs": [],
      "name": "owner",
      "outputs": [
        {
          "internalType": "address",
          "name": "",
          "type": "address"
        }
      ],
      "stateMutability": "view",
      "type": "function"
    },
    {
      "inputs": [
        {
          "internalType": "address",
          "name": "_user",
          "type": "address"
        },
        {
          "internalType": "uint256",
          "name": "_amount",
          "type": "uint256"
        }
      ],
      "name": "revokeRewards",
      "outputs": [],
      "stateMutability": "nonpayable",
      "type": "function"
    },
    {
      "inputs": [],
      "name": "rewardToken",
      "outputs": [
        {
          "internalType": "contract IRewardToken",
          "name": "",
          "type": "address"
        }
      ],
      "stateMutability": "view",
      "type": "function"
    },
    {
      "inputs": [],
      "name": "userRegistry",
      "outputs": [
        {
          "internalType": "contract IUserRegistry",
          "name": "",
          "type": "address"
        }
      ],
      "stateMutability": "view",
      "type": "function"
    }
  ],
  "bytecode": "0x608060405234801561000f575f5ffd5b506040516106da3803806106da83398101604081905261002e9161013a565b6001600160a01b0382166100895760405162461bcd60e51b815260206004820152601560248201527f496e76616c696420746f6b656e2061646472657373000000000000000000000060448201526064015b60405180910390fd5b6001600160a01b0381166100df5760405162461bcd60e51b815260206004820152601860248201527f496e76616c6964207265676973747279206164647265737300000000000000006044820152606401610080565b5f80546001600160a01b039384166001600160a01b031991821617909155600180549290931691811691909117909155600280549091163317905561016b565b80516001600160a01b0381168114610135575f5ffd5b919050565b5f5f6040838503121561014b575f5ffd5b6101548361011f565b91506101626020840161011f565b90509250929050565b610562806101785f395ff3fe608060405234801561000f575f5ffd5b5060043610610055575f3560e01c8063372500ab146100595780635c7460d6146100635780638da5cb5b14610092578063f7c618c1146100a5578063fcfe860b146100b7575b5f5ffd5b6100616100ca565b005b600154610076906001600160a01b031681565b6040516001600160a01b03909116815260200160405180910390f35b600254610076906001600160a01b031681565b5f54610076906001600160a01b031681565b6100616100c53660046104ba565b6102cb565b600154604051631847200f60e11b81523360048201525f916001600160a01b03169063308e401e90602401602060405180830381865afa158015610110573d5f5f3e3d5ffd5b505050506040513d601f19601f8201168201806040525081019061013491906104ef565b90505f81116101805760405162461bcd60e51b81526020600482015260136024820152724e6f207265776172647320746f20636c61696d60681b60448201526064015b60405180910390fd5b600154604051630b5418ff60e31b81523360048201526001600160a01b0390911690635aa0c7f8906024015f604051808303815f87803b1580156101c2575f5ffd5b505af11580156101d4573d5f5f3e3d5ffd5b50505f80546040516307b22ee360e21b8152336004820152602481018690529193506001600160a01b03169150631ec8bb8c906044016020604051808303815f875af1158015610226573d5f5f3e3d5ffd5b505050506040513d601f19601f8201168201806040525081019061024a9190610506565b9050806102925760405162461bcd60e51b815260206004820152601660248201527514995dd85c99081d1c985b9cd9995c8819985a5b195960521b6044820152606401610177565b60405182815233907f106f923f993c2149d49b4255ff723acafa1f2d94393f561d3eda32ae348f72419060200160405180910390a25050565b6001546001600160a01b031633146103255760405162461bcd60e51b815260206004820152601f60248201527f4f6e6c79205573657252656769737472792063616e2063616c6c2074686973006044820152606401610177565b6001600160a01b0382166103725760405162461bcd60e51b8152602060048201526014602482015273496e76616c69642075736572206164647265737360601b6044820152606401610177565b5f81116103b85760405162461bcd60e51b81526020600482015260146024820152734e6f207265776172647320746f207265766f6b6560601b6044820152606401610177565b5f80546040516355145b7b60e01b81526001600160a01b03858116600483015260248201859052909116906355145b7b906044016020604051808303815f875af1158015610408573d5f5f3e3d5ffd5b505050506040513d601f19601f8201168201806040525081019061042c9190610506565b9050806104725760405162461bcd60e51b815260206004820152601460248201527314995dd85c99081c995d9bdad94819985a5b195960621b6044820152606401610177565b826001600160a01b03167fe8a2a421091b9a386487de9ef73e753e4216057b60f1e4977bfa2a4387620f02836040516104ad91815260200190565b60405180910390a2505050565b5f5f604083850312156104cb575f5ffd5b82356001600160a01b03811681146104e1575f5ffd5b946020939093013593505050565b5f602082840312156104ff575f5ffd5b5051919050565b5f60208284031215610516575f5ffd5b81518015158114610525575f5ffd5b939250505056fea26469706673582212201d3736aa1b8054243a785b7814879062b48a6bbc31aef28ff28de24c97a357c064736f6c634300081c0033",
  "linkReferences": {},
  "deployedLinkReferences": {},
  "immutableReferences": {},
  "inputSourceName": "project/contracts/RewardManager.sol",
  "buildInfoId": "solc-0_8_28-fb5f3699f7379b20e5f5ef9a198403246532d21c"
}