{
  "_format": "hh3-artifact-1",
  "contractName": "RewardManager",
  "sourceName": "contracts/RewardManager.sol",
  "abi": [
    {
      "inputs": [
        {
          "internalType": "address",
          "name": "_tokenAddress",
          "type": "address"
        },
        {
          "internalType": "address",
          "name": "_registryAddress",
          "type": "address"
        }
      ],
      "stateMutability": "nonpayable",
      "type": "constructor"
    },
    {
      "anonymous": false,
      "inputs": [
        {
          "indexed": true,
          "internalType": "address",
          "name": "user",
          "type": "address"
        },
        {
          "indexed": false,
          "internalType": "uint256",
          "name": "amount",
          "type": "uint256"
        }
      ],
      "name": "RewardClaimed",
      "type": "event"
    },
    {
      "inputs": [],
      "name": "claimRewards",
      "outputs": [],
      "stateMutability": "nonpayable",
      "type": "function"
    },
    {
      "inputs": [],
      "name": "owner",
      "outputs": [
        {
          "internalType": "address",
          "name": "",
          "type": "address"
        }
      ],
      "stateMutability": "view",
      "type": "function"
    },
    {
      "inputs": [],
      "name": "rewardToken",
      "outputs": [
        {
          "internalType": "contract IRewardToken",
          "name": "",
          "type": "address"
        }
      ],
      "stateMutability": "view",
      "type": "function"
    },
    {
      "inputs": [],
      "name": "userRegistry",
      "outputs": [
        {
          "internalType": "contract IUserRegistry",
          "name": "",
          "type": "address"
        }
      ],
      "stateMutability": "view",
      "type": "function"
    }
  ],
  "bytecode": "0x608060405234801561000f575f5ffd5b5060405161049838038061049883398101604081905261002e9161013a565b6001600160a01b0382166100895760405162461bcd60e51b815260206004820152601560248201527f496e76616c696420746f6b656e2061646472657373000000000000000000000060448201526064015b60405180910390fd5b6001600160a01b0381166100df5760405162461bcd60e51b815260206004820152601860248201527f496e76616c6964207265676973747279206164647265737300000000000000006044820152606401610080565b5f80546001600160a01b039384166001600160a01b031991821617909155600180549290931691811691909117909155600280549091163317905561016b565b80516001600160a01b0381168114610135575f5ffd5b919050565b5f5f6040838503121561014b575f5ffd5b6101548361011f565b91506101626020840161011f565b90509250929050565b610320806101785f395ff3fe608060405234801561000f575f5ffd5b506004361061004a575f3560e01c8063372500ab1461004e5780635c7460d6146100585780638da5cb5b14610087578063f7c618c11461009a575b5f5ffd5b6100566100ac565b005b60015461006b906001600160a01b031681565b6040516001600160a01b03909116815260200160405180910390f35b60025461006b906001600160a01b031681565b5f5461006b906001600160a01b031681565b600154604051631847200f60e11b81523360048201525f916001600160a01b03169063308e401e90602401602060405180830381865afa1580156100f2573d5f5f3e3d5ffd5b505050506040513d601f19601f8201168201806040525081019061011691906102ad565b90505f81116101625760405162461bcd60e51b81526020600482015260136024820152724e6f207265776172647320746f20636c61696d60681b60448201526064015b60405180910390fd5b600154604051630b5418ff60e31b81523360048201526001600160a01b0390911690635aa0c7f8906024015f604051808303815f87803b1580156101a4575f5ffd5b505af11580156101b6573d5f5f3e3d5ffd5b50505f80546040516307b22ee360e21b8152336004820152602481018690529193506001600160a01b03169150631ec8bb8c906044016020604051808303815f875af1158015610208573d5f5f3e3d5ffd5b505050506040513d601f19601f8201168201806040525081019061022c91906102c4565b9050806102745760405162461bcd60e51b815260206004820152601660248201527514995dd85c99081d1c985b9cd9995c8819985a5b195960521b6044820152606401610159565b60405182815233907f106f923f993c2149d49b4255ff723acafa1f2d94393f561d3eda32ae348f72419060200160405180910390a25050565b5f602082840312156102bd575f5ffd5b5051919050565b5f602082840312156102d4575f5ffd5b815180151581146102e3575f5ffd5b939250505056fea2646970667358221220a9fbc4de513a6101a27407d57bcde10fb2363f09200401ab350b9bbdc1fea01c64736f6c634300081c0033",
  "linkReferences": {},
  "deployedLinkReferences": {},
  "immutableReferences": {},
  "inputSourceName": "project/contracts/RewardManager.sol",
  "buildInfoId": "solc-0_8_28-699c3450f1841da3fbcfab1ea162e2f65acf224a"
}