{
  "_format": "hh3-artifact-1",
  "contractName": "UserRegistry",
  "sourceName": "contracts/UserRegistry.sol",
  "abi": [
    {
      "anonymous": false,
      "inputs": [
        {
          "indexed": true,
          "internalType": "address",
          "name": "user",
          "type": "address"
        },
        {
          "indexed": true,
          "internalType": "address",
          "name": "campaign",
          "type": "address"
        },
        {
          "indexed": false,
          "internalType": "uint256",
          "name": "amount",
          "type": "uint256"
        },
        {
          "indexed": false,
          "internalType": "uint256",
          "name": "timestamp",
          "type": "uint256"
        }
      ],
      "name": "DonationRecorded",
      "type": "event"
    },
    {
      "anonymous": false,
      "inputs": [
        {
          "indexed": true,
          "internalType": "address",
          "name": "userAddress",
          "type": "address"
        },
        {
          "indexed": false,
          "internalType": "string",
          "name": "username",
          "type": "string"
        },
        {
          "indexed": false,
          "internalType": "uint256",
          "name": "timestamp",
          "type": "uint256"
        }
      ],
      "name": "UserRegistered",
      "type": "event"
    },
    {
      "inputs": [
        {
          "internalType": "address",
          "name": "_userAddress",
          "type": "address"
        }
      ],
      "name": "getUser",
      "outputs": [
        {
          "components": [
            {
              "internalType": "string",
              "name": "name",
              "type": "string"
            },
            {
              "internalType": "bool",
              "name": "isRegistered",
              "type": "bool"
            }
          ],
          "internalType": "struct UserRegistry.User",
          "name": "",
          "type": "tuple"
        }
      ],
      "stateMutability": "view",
      "type": "function"
    },
    {
      "inputs": [
        {
          "internalType": "address",
          "name": "_userAddress",
          "type": "address"
        }
      ],
      "name": "getUserDonations",
      "outputs": [
        {
          "components": [
            {
              "internalType": "address",
              "name": "campaign",
              "type": "address"
            },
            {
              "internalType": "uint256",
              "name": "amount",
              "type": "uint256"
            },
            {
              "internalType": "uint256",
              "name": "timestamp",
              "type": "uint256"
            }
          ],
          "internalType": "struct UserRegistry.DonationRecord[]",
          "name": "",
          "type": "tuple[]"
        }
      ],
      "stateMutability": "view",
      "type": "function"
    },
    {
      "inputs": [
        {
          "internalType": "address",
          "name": "_user",
          "type": "address"
        },
        {
          "internalType": "uint256",
          "name": "_amount",
          "type": "uint256"
        }
      ],
      "name": "recordDonation",
      "outputs": [],
      "stateMutability": "nonpayable",
      "type": "function"
    },
    {
      "inputs": [
        {
          "internalType": "string",
          "name": "_name",
          "type": "string"
        }
      ],
      "name": "register",
      "outputs": [],
      "stateMutability": "nonpayable",
      "type": "function"
    },
    {
      "inputs": [
        {
          "internalType": "address",
          "name": "",
          "type": "address"
        },
        {
          "internalType": "uint256",
          "name": "",
          "type": "uint256"
        }
      ],
      "name": "userDonations",
      "outputs": [
        {
          "internalType": "address",
          "name": "campaign",
          "type": "address"
        },
        {
          "internalType": "uint256",
          "name": "amount",
          "type": "uint256"
        },
        {
          "internalType": "uint256",
          "name": "timestamp",
          "type": "uint256"
        }
      ],
      "stateMutability": "view",
      "type": "function"
    },
    {
      "inputs": [
        {
          "internalType": "address",
          "name": "",
          "type": "address"
        }
      ],
      "name": "users",
      "outputs": [
        {
          "internalType": "string",
          "name": "name",
          "type": "string"
        },
        {
          "internalType": "bool",
          "name": "isRegistered",
          "type": "bool"
        }
      ],
      "stateMutability": "view",
      "type": "function"
    }
  ],
  "bytecode": "0x6080604052348015600e575f5ffd5b506109268061001c5f395ff3fe608060405234801561000f575f5ffd5b5060043610610060575f3560e01c806326af520f146100645780634933e631146100795780636f77926b146100b6578063732435b2146100d6578063a87430ba146100f6578063f2c298be14610117575b5f5ffd5b610077610072366004610599565b61012a565b005b61008c610087366004610599565b6101dd565b604080516001600160a01b0390941684526020840192909252908201526060015b60405180910390f35b6100c96100c43660046105c1565b610225565b6040516100ad919061060f565b6100e96100e43660046105c1565b610300565b6040516100ad9190610642565b6101096101043660046105c1565b610396565b6040516100ad9291906106a6565b6100776101253660046106dd565b61043a565b6001600160a01b038281165f8181526001602081815260408084208151606081018352338082528185018a8152428386018181528554808a018755958a52988790209351600390950290930180546001600160a01b03191694909a16939093178955915194880194909455935160029096019590955584518681529081019190915290927f27da9383078920cb7a49360db829dd9695d88e5cd1dcf72e04899ab7e52d0fea910160405180910390a35050565b6001602052815f5260405f2081815481106101f6575f80fd5b5f9182526020909120600390910201805460018201546002909201546001600160a01b03909116935090915083565b60408051808201909152606081525f60208201526001600160a01b0382165f9081526020819052604090819020815180830190925280548290829061026990610790565b80601f016020809104026020016040519081016040528092919081815260200182805461029590610790565b80156102e05780601f106102b7576101008083540402835291602001916102e0565b820191905f5260205f20905b8154815290600101906020018083116102c357829003601f168201915b50505091835250506001919091015460ff16151560209091015292915050565b6001600160a01b0381165f908152600160209081526040808320805482518185028101850190935280835260609492939192909184015b8282101561038b575f848152602090819020604080516060810182526003860290920180546001600160a01b0316835260018082015484860152600290910154918301919091529083529092019101610337565b505050509050919050565b5f602081905290815260409020805481906103b090610790565b80601f01602080910402602001604051908101604052809291908181526020018280546103dc90610790565b80156104275780601f106103fe57610100808354040283529160200191610427565b820191905f5260205f20905b81548152906001019060200180831161040a57829003601f168201915b5050506001909301549192505060ff1682565b5f81511161048f5760405162461bcd60e51b815260206004820152601860248201527f557365726e616d652063616e6e6f7420626520656d707479000000000000000060448201526064015b60405180910390fd5b335f9081526020819052604090206001015460ff16156104f15760405162461bcd60e51b815260206004820152601760248201527f5573657220616c726561647920726567697374657265640000000000000000006044820152606401610486565b6040805180820182528281526001602080830191909152335f9081529081905291909120815181906105239082610814565b50602091909101516001909101805460ff191691151591909117905560405133907f89105a1c6a3c2fbd471255c66a31ccab604af5697f67d7e2e9a0028c5e4dbd919061057390849042906108cf565b60405180910390a250565b80356001600160a01b0381168114610594575f5ffd5b919050565b5f5f604083850312156105aa575f5ffd5b6105b38361057e565b946020939093013593505050565b5f602082840312156105d1575f5ffd5b6105da8261057e565b9392505050565b5f81518084528060208401602086015e5f602082860101526020601f19601f83011685010191505092915050565b602081525f82516040602084015261062a60608401826105e1565b90506020840151151560408401528091505092915050565b602080825282518282018190525f918401906040840190835b8181101561069b57835180516001600160a01b0316845260208082015181860152604091820151918501919091529093019260609092019160010161065b565b509095945050505050565b604081525f6106b860408301856105e1565b905082151560208301529392505050565b634e487b7160e01b5f52604160045260245ffd5b5f602082840312156106ed575f5ffd5b813567ffffffffffffffff811115610703575f5ffd5b8201601f81018413610713575f5ffd5b803567ffffffffffffffff81111561072d5761072d6106c9565b604051601f8201601f19908116603f0116810167ffffffffffffffff8111828210171561075c5761075c6106c9565b604052818152828201602001861015610773575f5ffd5b816020840160208301375f91810160200191909152949350505050565b600181811c908216806107a457607f821691505b6020821081036107c257634e487b7160e01b5f52602260045260245ffd5b50919050565b601f82111561080f57805f5260205f20601f840160051c810160208510156107ed5750805b601f840160051c820191505b8181101561080c575f81556001016107f9565b50505b505050565b815167ffffffffffffffff81111561082e5761082e6106c9565b6108428161083c8454610790565b846107c8565b6020601f821160018114610874575f831561085d5750848201515b5f19600385901b1c1916600184901b17845561080c565b5f84815260208120601f198516915b828110156108a35787850151825560209485019460019092019101610883565b50848210156108c057868401515f19600387901b60f8161c191681555b50505050600190811b01905550565b604081525f6108e160408301856105e1565b9050826020830152939250505056fea2646970667358221220d10a68db1043e047ea5c4d6688ac66a8ba4cd5510b6ba008678624514b36c6c464736f6c634300081c0033",
  "linkReferences": {},
  "deployedLinkReferences": {},
  "immutableReferences": {},
  "inputSourceName": "project/contracts/UserRegistry.sol",
  "buildInfoId": "solc-0_8_28-9c36019dd1f82be384d241cb58f2c7224e0a5be2"
}