{
  "_format": "hh3-artifact-1",
  "contractName": "UserRegistry",
  "sourceName": "contracts/UserRegistry.sol",
  "abi": [
    {
      "inputs": [],
      "stateMutability": "nonpayable",
      "type": "constructor"
    },
    {
      "anonymous": false,
      "inputs": [
        {
          "indexed": true,
          "internalType": "address",
          "name": "user",
          "type": "address"
        },
        {
          "indexed": true,
          "internalType": "address",
          "name": "campaign",
          "type": "address"
        },
        {
          "indexed": false,
          "internalType": "uint256",
          "name": "amount",
          "type": "uint256"
        },
        {
          "indexed": false,
          "internalType": "uint256",
          "name": "timestamp",
          "type": "uint256"
        }
      ],
      "name": "DonationRecorded",
      "type": "event"
    },
    {
      "anonymous": false,
      "inputs": [
        {
          "indexed": true,
          "internalType": "address",
          "name": "userAddress",
          "type": "address"
        },
        {
          "indexed": false,
          "internalType": "string",
          "name": "username",
          "type": "string"
        },
        {
          "indexed": false,
          "internalType": "uint256",
          "name": "timestamp",
          "type": "uint256"
        }
      ],
      "name": "UserRegistered",
      "type": "event"
    },
    {
      "inputs": [
        {
          "internalType": "address",
          "name": "_campaign",
          "type": "address"
        }
      ],
      "name": "authorizeCampaign",
      "outputs": [],
      "stateMutability": "nonpayable",
      "type": "function"
    },
    {
      "inputs": [
        {
          "internalType": "address",
          "name": "",
          "type": "address"
        }
      ],
      "name": "authorizedCampaigns",
      "outputs": [
        {
          "internalType": "bool",
          "name": "",
          "type": "bool"
        }
      ],
      "stateMutability": "view",
      "type": "function"
    },
    {
      "inputs": [],
      "name": "campaignFactory",
      "outputs": [
        {
          "internalType": "address",
          "name": "",
          "type": "address"
        }
      ],
      "stateMutability": "view",
      "type": "function"
    },
    {
      "inputs": [
        {
          "internalType": "address",
          "name": "",
          "type": "address"
        }
      ],
      "name": "claimableRewards",
      "outputs": [
        {
          "internalType": "uint256",
          "name": "",
          "type": "uint256"
        }
      ],
      "stateMutability": "view",
      "type": "function"
    },
    {
      "inputs": [
        {
          "internalType": "address",
          "name": "_user",
          "type": "address"
        }
      ],
      "name": "getClaimableRewards",
      "outputs": [
        {
          "internalType": "uint256",
          "name": "",
          "type": "uint256"
        }
      ],
      "stateMutability": "view",
      "type": "function"
    },
    {
      "inputs": [
        {
          "internalType": "address",
          "name": "_userAddress",
          "type": "address"
        }
      ],
      "name": "getUser",
      "outputs": [
        {
          "components": [
            {
              "internalType": "string",
              "name": "name",
              "type": "string"
            },
            {
              "internalType": "bool",
              "name": "isRegistered",
              "type": "bool"
            }
          ],
          "internalType": "struct UserRegistry.User",
          "name": "",
          "type": "tuple"
        }
      ],
      "stateMutability": "view",
      "type": "function"
    },
    {
      "inputs": [
        {
          "internalType": "address",
          "name": "_userAddress",
          "type": "address"
        }
      ],
      "name": "getUserDonations",
      "outputs": [
        {
          "components": [
            {
              "internalType": "address",
              "name": "campaign",
              "type": "address"
            },
            {
              "internalType": "uint256",
              "name": "amount",
              "type": "uint256"
            },
            {
              "internalType": "uint256",
              "name": "timestamp",
              "type": "uint256"
            }
          ],
          "internalType": "struct UserRegistry.DonationRecord[]",
          "name": "",
          "type": "tuple[]"
        }
      ],
      "stateMutability": "view",
      "type": "function"
    },
    {
      "inputs": [],
      "name": "owner",
      "outputs": [
        {
          "internalType": "address",
          "name": "",
          "type": "address"
        }
      ],
      "stateMutability": "view",
      "type": "function"
    },
    {
      "inputs": [
        {
          "internalType": "address",
          "name": "_user",
          "type": "address"
        },
        {
          "internalType": "uint256",
          "name": "_amount",
          "type": "uint256"
        }
      ],
      "name": "recordDonation",
      "outputs": [],
      "stateMutability": "nonpayable",
      "type": "function"
    },
    {
      "inputs": [
        {
          "internalType": "string",
          "name": "_name",
          "type": "string"
        }
      ],
      "name": "register",
      "outputs": [],
      "stateMutability": "nonpayable",
      "type": "function"
    },
    {
      "inputs": [
        {
          "internalType": "address",
          "name": "_user",
          "type": "address"
        }
      ],
      "name": "resetRewards",
      "outputs": [],
      "stateMutability": "nonpayable",
      "type": "function"
    },
    {
      "inputs": [],
      "name": "rewardManager",
      "outputs": [
        {
          "internalType": "address",
          "name": "",
          "type": "address"
        }
      ],
      "stateMutability": "view",
      "type": "function"
    },
    {
      "inputs": [
        {
          "internalType": "address",
          "name": "_campaignFactory",
          "type": "address"
        }
      ],
      "name": "setCampaignFactory",
      "outputs": [],
      "stateMutability": "nonpayable",
      "type": "function"
    },
    {
      "inputs": [
        {
          "internalType": "address",
          "name": "_rewardManager",
          "type": "address"
        }
      ],
      "name": "setRewardManager",
      "outputs": [],
      "stateMutability": "nonpayable",
      "type": "function"
    },
    {
      "inputs": [
        {
          "internalType": "address",
          "name": "",
          "type": "address"
        },
        {
          "internalType": "uint256",
          "name": "",
          "type": "uint256"
        }
      ],
      "name": "userDonations",
      "outputs": [
        {
          "internalType": "address",
          "name": "campaign",
          "type": "address"
        },
        {
          "internalType": "uint256",
          "name": "amount",
          "type": "uint256"
        },
        {
          "internalType": "uint256",
          "name": "timestamp",
          "type": "uint256"
        }
      ],
      "stateMutability": "view",
      "type": "function"
    },
    {
      "inputs": [
        {
          "internalType": "address",
          "name": "",
          "type": "address"
        }
      ],
      "name": "users",
      "outputs": [
        {
          "internalType": "string",
          "name": "name",
          "type": "string"
        },
        {
          "internalType": "bool",
          "name": "isRegistered",
          "type": "bool"
        }
      ],
      "stateMutability": "view",
      "type": "function"
    }
  ],
  "bytecode": "0x6080604052348015600e575f5ffd5b50600680546001600160a01b03191633179055610f208061002e5f395ff3fe608060405234801561000f575f5ffd5b50600436106100fb575f3560e01c8063697aa09b11610093578063a87430ba11610063578063a87430ba14610283578063ae2c4c03146102a4578063dc01f60d146102b7578063f2c298be146102d6575f5ffd5b8063697aa09b146101fe5780636f77926b14610230578063732435b2146102505780638da5cb5b14610270575f5ffd5b8063308e401e116100ce578063308e401e1461016a57806342319654146101a05780634933e631146101b35780635aa0c7f8146101eb575f5ffd5b80630f4ef8a6146100ff578063153ee5541461012f57806326af520f146101445780632fbd685614610157575b5f5ffd5b600454610112906001600160a01b031681565b6040516001600160a01b0390911681526020015b60405180910390f35b61014261013d366004610b6e565b6102e9565b005b610142610152366004610b8e565b6103aa565b600554610112906001600160a01b031681565b610192610178366004610b6e565b6001600160a01b03165f9081526002602052604090205490565b604051908152602001610126565b6101426101ae366004610b6e565b6105a3565b6101c66101c1366004610b8e565b610666565b604080516001600160a01b039094168452602084019290925290820152606001610126565b6101426101f9366004610b6e565b6106ae565b61022061020c366004610b6e565b60036020525f908152604090205460ff1681565b6040519015158152602001610126565b61024361023e366004610b6e565b610721565b6040516101269190610be4565b61026361025e366004610b6e565b6107fc565b6040516101269190610c17565b600654610112906001600160a01b031681565b610296610291366004610b6e565b610892565b604051610126929190610c7b565b6101426102b2366004610b6e565b610936565b6101926102c5366004610b6e565b60026020525f908152604090205481565b6101426102e4366004610cb2565b610a14565b6006546001600160a01b031633146103395760405162461bcd60e51b815260206004820152600e60248201526d139bdd08185d5d1a1bdc9a5e995960921b60448201526064015b60405180910390fd5b6001600160a01b0381166103885760405162461bcd60e51b815260206004820152601660248201527524b73b30b634b2103932bbb0b9321036b0b730b3b2b960511b6044820152606401610330565b600480546001600160a01b0319166001600160a01b0392909216919091179055565b335f9081526003602052604090205460ff1661041f5760405162461bcd60e51b815260206004820152602e60248201527f4f6e6c7920617574686f72697a65642063616d706169676e732063616e20726560448201526d636f726420646f6e6174696f6e7360901b6064820152608401610330565b6001600160a01b03821661046c5760405162461bcd60e51b8152602060048201526014602482015273496e76616c69642075736572206164647265737360601b6044820152606401610330565b805f036104ca5760405162461bcd60e51b815260206004820152602660248201527f446f6e6174696f6e20616d6f756e74206d75737420626520677265617465722060448201526507468616e20360d41b6064820152608401610330565b6001600160a01b038281165f818152600160208181526040808420815160608101835233815280840189815242828501908152835480880185559388528588209251600390940290920180546001600160a01b031916939099169290921788559051938701939093559151600295860155928252929091529081208054839290610555908490610d65565b90915550506040805182815242602082015233916001600160a01b038516917f27da9383078920cb7a49360db829dd9695d88e5cd1dcf72e04899ab7e52d0fea910160405180910390a35050565b6006546001600160a01b031633146105ee5760405162461bcd60e51b815260206004820152600e60248201526d139bdd08185d5d1a1bdc9a5e995960921b6044820152606401610330565b6001600160a01b0381166106445760405162461bcd60e51b815260206004820152601860248201527f496e76616c69642063616d706169676e20666163746f727900000000000000006044820152606401610330565b600580546001600160a01b0319166001600160a01b0392909216919091179055565b6001602052815f5260405f20818154811061067f575f80fd5b5f9182526020909120600390910201805460018201546002909201546001600160a01b03909116935090915083565b6004546001600160a01b031633146107085760405162461bcd60e51b815260206004820181905260248201527f4f6e6c79205265776172644d616e616765722063616e2063616c6c20746869736044820152606401610330565b6001600160a01b03165f90815260026020526040812055565b60408051808201909152606081525f60208201526001600160a01b0382165f9081526020819052604090819020815180830190925280548290829061076590610d8a565b80601f016020809104026020016040519081016040528092919081815260200182805461079190610d8a565b80156107dc5780601f106107b3576101008083540402835291602001916107dc565b820191905f5260205f20905b8154815290600101906020018083116107bf57829003601f168201915b50505091835250506001919091015460ff16151560209091015292915050565b6001600160a01b0381165f908152600160209081526040808320805482518185028101850190935280835260609492939192909184015b82821015610887575f848152602090819020604080516060810182526003860290920180546001600160a01b0316835260018082015484860152600290910154918301919091529083529092019101610833565b505050509050919050565b5f602081905290815260409020805481906108ac90610d8a565b80601f01602080910402602001604051908101604052809291908181526020018280546108d890610d8a565b80156109235780601f106108fa57610100808354040283529160200191610923565b820191905f5260205f20905b81548152906001019060200180831161090657829003601f168201915b5050506001909301549192505060ff1682565b6005546001600160a01b0316331461099b5760405162461bcd60e51b815260206004820152602260248201527f4f6e6c792043616d706169676e466163746f72792063616e2063616c6c207468604482015261697360f01b6064820152608401610330565b6001600160a01b0381166109f15760405162461bcd60e51b815260206004820152601860248201527f496e76616c69642063616d706169676e206164647265737300000000000000006044820152606401610330565b6001600160a01b03165f908152600360205260409020805460ff19166001179055565b5f815111610a645760405162461bcd60e51b815260206004820152601860248201527f557365726e616d652063616e6e6f7420626520656d70747900000000000000006044820152606401610330565b335f9081526020819052604090206001015460ff1615610ac65760405162461bcd60e51b815260206004820152601760248201527f5573657220616c726561647920726567697374657265640000000000000000006044820152606401610330565b6040805180820182528281526001602080830191909152335f908152908190529190912081518190610af89082610e0e565b50602091909101516001909101805460ff191691151591909117905560405133907f89105a1c6a3c2fbd471255c66a31ccab604af5697f67d7e2e9a0028c5e4dbd9190610b489084904290610ec9565b60405180910390a250565b80356001600160a01b0381168114610b69575f5ffd5b919050565b5f60208284031215610b7e575f5ffd5b610b8782610b53565b9392505050565b5f5f60408385031215610b9f575f5ffd5b610ba883610b53565b946020939093013593505050565b5f81518084528060208401602086015e5f602082860101526020601f19601f83011685010191505092915050565b602081525f825160406020840152610bff6060840182610bb6565b90506020840151151560408401528091505092915050565b602080825282518282018190525f918401906040840190835b81811015610c7057835180516001600160a01b03168452602080820151818601526040918201519185019190915290930192606090920191600101610c30565b509095945050505050565b604081525f610c8d6040830185610bb6565b905082151560208301529392505050565b634e487b7160e01b5f52604160045260245ffd5b5f60208284031215610cc2575f5ffd5b813567ffffffffffffffff811115610cd8575f5ffd5b8201601f81018413610ce8575f5ffd5b803567ffffffffffffffff811115610d0257610d02610c9e565b604051601f8201601f19908116603f0116810167ffffffffffffffff81118282101715610d3157610d31610c9e565b604052818152828201602001861015610d48575f5ffd5b816020840160208301375f91810160200191909152949350505050565b80820180821115610d8457634e487b7160e01b5f52601160045260245ffd5b92915050565b600181811c90821680610d9e57607f821691505b602082108103610dbc57634e487b7160e01b5f52602260045260245ffd5b50919050565b601f821115610e0957805f5260205f20601f840160051c81016020851015610de75750805b601f840160051c820191505b81811015610e06575f8155600101610df3565b50505b505050565b815167ffffffffffffffff811115610e2857610e28610c9e565b610e3c81610e368454610d8a565b84610dc2565b6020601f821160018114610e6e575f8315610e575750848201515b5f19600385901b1c1916600184901b178455610e06565b5f84815260208120601f198516915b82811015610e9d5787850151825560209485019460019092019101610e7d565b5084821015610eba57868401515f19600387901b60f8161c191681555b50505050600190811b01905550565b604081525f610edb6040830185610bb6565b9050826020830152939250505056fea264697066735822122064649bbe912c221560eb249ef232672c2255ea40c25bfdcc9465b2ce70de922864736f6c634300081c0033",
  "linkReferences": {},
  "deployedLinkReferences": {},
  "immutableReferences": {},
  "inputSourceName": "project/contracts/UserRegistry.sol",
  "buildInfoId": "solc-0_8_28-70af81dd042ee7a7b9e080f7870bfa431f7a0d14"
}