{
  "_format": "hh3-artifact-1",
  "contractName": "UserRegistry",
  "sourceName": "contracts/UserRegistry.sol",
  "abi": [
    {
      "inputs": [],
      "stateMutability": "nonpayable",
      "type": "constructor"
    },
    {
      "anonymous": false,
      "inputs": [
        {
          "indexed": true,
          "internalType": "address",
          "name": "user",
          "type": "address"
        },
        {
          "indexed": true,
          "internalType": "address",
          "name": "campaign",
          "type": "address"
        },
        {
          "indexed": false,
          "internalType": "uint256",
          "name": "amount",
          "type": "uint256"
        },
        {
          "indexed": false,
          "internalType": "uint256",
          "name": "timestamp",
          "type": "uint256"
        }
      ],
      "name": "DonationRecorded",
      "type": "event"
    },
    {
      "anonymous": false,
      "inputs": [
        {
          "indexed": true,
          "internalType": "address",
          "name": "user",
          "type": "address"
        },
        {
          "indexed": true,
          "internalType": "address",
          "name": "campaign",
          "type": "address"
        },
        {
          "indexed": false,
          "internalType": "uint256",
          "name": "amount",
          "type": "uint256"
        },
        {
          "indexed": false,
          "internalType": "uint256",
          "name": "timestamp",
          "type": "uint256"
        }
      ],
      "name": "DonationReversed",
      "type": "event"
    },
    {
      "anonymous": false,
      "inputs": [
        {
          "indexed": true,
          "internalType": "address",
          "name": "userAddress",
          "type": "address"
        },
        {
          "indexed": false,
          "internalType": "string",
          "name": "username",
          "type": "string"
        },
        {
          "indexed": false,
          "internalType": "uint256",
          "name": "timestamp",
          "type": "uint256"
        }
      ],
      "name": "UserRegistered",
      "type": "event"
    },
    {
      "inputs": [
        {
          "internalType": "address",
          "name": "_campaign",
          "type": "address"
        }
      ],
      "name": "authorizeCampaign",
      "outputs": [],
      "stateMutability": "nonpayable",
      "type": "function"
    },
    {
      "inputs": [
        {
          "internalType": "address",
          "name": "",
          "type": "address"
        }
      ],
      "name": "authorizedCampaigns",
      "outputs": [
        {
          "internalType": "bool",
          "name": "",
          "type": "bool"
        }
      ],
      "stateMutability": "view",
      "type": "function"
    },
    {
      "inputs": [],
      "name": "campaignFactory",
      "outputs": [
        {
          "internalType": "address",
          "name": "",
          "type": "address"
        }
      ],
      "stateMutability": "view",
      "type": "function"
    },
    {
      "inputs": [
        {
          "internalType": "address",
          "name": "",
          "type": "address"
        }
      ],
      "name": "claimableRewards",
      "outputs": [
        {
          "internalType": "uint256",
          "name": "",
          "type": "uint256"
        }
      ],
      "stateMutability": "view",
      "type": "function"
    },
    {
      "inputs": [
        {
          "internalType": "address",
          "name": "_user",
          "type": "address"
        }
      ],
      "name": "getClaimableRewards",
      "outputs": [
        {
          "internalType": "uint256",
          "name": "",
          "type": "uint256"
        }
      ],
      "stateMutability": "view",
      "type": "function"
    },
    {
      "inputs": [
        {
          "internalType": "address",
          "name": "_userAddress",
          "type": "address"
        }
      ],
      "name": "getUser",
      "outputs": [
        {
          "components": [
            {
              "internalType": "string",
              "name": "name",
              "type": "string"
            },
            {
              "internalType": "bool",
              "name": "isRegistered",
              "type": "bool"
            }
          ],
          "internalType": "struct UserRegistry.User",
          "name": "",
          "type": "tuple"
        }
      ],
      "stateMutability": "view",
      "type": "function"
    },
    {
      "inputs": [
        {
          "internalType": "address",
          "name": "_userAddress",
          "type": "address"
        }
      ],
      "name": "getUserDonations",
      "outputs": [
        {
          "components": [
            {
              "internalType": "address",
              "name": "campaign",
              "type": "address"
            },
            {
              "internalType": "uint256",
              "name": "amount",
              "type": "uint256"
            },
            {
              "internalType": "uint256",
              "name": "timestamp",
              "type": "uint256"
            }
          ],
          "internalType": "struct UserRegistry.DonationRecord[]",
          "name": "",
          "type": "tuple[]"
        }
      ],
      "stateMutability": "view",
      "type": "function"
    },
    {
      "inputs": [],
      "name": "owner",
      "outputs": [
        {
          "internalType": "address",
          "name": "",
          "type": "address"
        }
      ],
      "stateMutability": "view",
      "type": "function"
    },
    {
      "inputs": [
        {
          "internalType": "address",
          "name": "_user",
          "type": "address"
        },
        {
          "internalType": "uint256",
          "name": "_amount",
          "type": "uint256"
        }
      ],
      "name": "recordDonation",
      "outputs": [],
      "stateMutability": "nonpayable",
      "type": "function"
    },
    {
      "inputs": [
        {
          "internalType": "string",
          "name": "_name",
          "type": "string"
        }
      ],
      "name": "register",
      "outputs": [],
      "stateMutability": "nonpayable",
      "type": "function"
    },
    {
      "inputs": [
        {
          "internalType": "address",
          "name": "_user",
          "type": "address"
        }
      ],
      "name": "resetRewards",
      "outputs": [],
      "stateMutability": "nonpayable",
      "type": "function"
    },
    {
      "inputs": [
        {
          "internalType": "address",
          "name": "_user",
          "type": "address"
        },
        {
          "internalType": "uint256",
          "name": "_amount",
          "type": "uint256"
        }
      ],
      "name": "reverseDonation",
      "outputs": [],
      "stateMutability": "nonpayable",
      "type": "function"
    },
    {
      "inputs": [],
      "name": "rewardManager",
      "outputs": [
        {
          "internalType": "address",
          "name": "",
          "type": "address"
        }
      ],
      "stateMutability": "view",
      "type": "function"
    },
    {
      "inputs": [
        {
          "internalType": "address",
          "name": "_campaignFactory",
          "type": "address"
        }
      ],
      "name": "setCampaignFactory",
      "outputs": [],
      "stateMutability": "nonpayable",
      "type": "function"
    },
    {
      "inputs": [
        {
          "internalType": "address",
          "name": "_rewardManager",
          "type": "address"
        }
      ],
      "name": "setRewardManager",
      "outputs": [],
      "stateMutability": "nonpayable",
      "type": "function"
    },
    {
      "inputs": [
        {
          "internalType": "address",
          "name": "",
          "type": "address"
        },
        {
          "internalType": "uint256",
          "name": "",
          "type": "uint256"
        }
      ],
      "name": "userDonations",
      "outputs": [
        {
          "internalType": "address",
          "name": "campaign",
          "type": "address"
        },
        {
          "internalType": "uint256",
          "name": "amount",
          "type": "uint256"
        },
        {
          "internalType": "uint256",
          "name": "timestamp",
          "type": "uint256"
        }
      ],
      "stateMutability": "view",
      "type": "function"
    },
    {
      "inputs": [
        {
          "internalType": "address",
          "name": "",
          "type": "address"
        }
      ],
      "name": "users",
      "outputs": [
        {
          "internalType": "string",
          "name": "name",
          "type": "string"
        },
        {
          "internalType": "bool",
          "name": "isRegistered",
          "type": "bool"
        }
      ],
      "stateMutability": "view",
      "type": "function"
    }
  ],
  "bytecode": "0x6080604052348015600e575f5ffd5b50600680546001600160a01b031916331790556111eb8061002e5f395ff3fe608060405234801561000f575f5ffd5b5060043610610106575f3560e01c8063697aa09b1161009e578063a87430ba1161006e578063a87430ba1461028e578063ae2c4c03146102af578063ba1b82df146102c2578063dc01f60d146102d5578063f2c298be146102f4575f5ffd5b8063697aa09b146102095780636f77926b1461023b578063732435b21461025b5780638da5cb5b1461027b575f5ffd5b8063308e401e116100d9578063308e401e1461017557806342319654146101ab5780634933e631146101be5780635aa0c7f8146101f6575f5ffd5b80630f4ef8a61461010a578063153ee5541461013a57806326af520f1461014f5780632fbd685614610162575b5f5ffd5b60045461011d906001600160a01b031681565b6040516001600160a01b0390911681526020015b60405180910390f35b61014d610148366004610e1e565b610307565b005b61014d61015d366004610e3e565b6103c8565b60055461011d906001600160a01b031681565b61019d610183366004610e1e565b6001600160a01b03165f9081526002602052604090205490565b604051908152602001610131565b61014d6101b9366004610e1e565b6105c1565b6101d16101cc366004610e3e565b610684565b604080516001600160a01b039094168452602084019290925290820152606001610131565b61014d610204366004610e1e565b6106cc565b61022b610217366004610e1e565b60036020525f908152604090205460ff1681565b6040519015158152602001610131565b61024e610249366004610e1e565b61073f565b6040516101319190610e94565b61026e610269366004610e1e565b61081a565b6040516101319190610ec7565b60065461011d906001600160a01b031681565b6102a161029c366004610e1e565b6108b0565b604051610131929190610f2b565b61014d6102bd366004610e1e565b610954565b61014d6102d0366004610e3e565b610a32565b61019d6102e3366004610e1e565b60026020525f908152604090205481565b61014d610302366004610f62565b610cc4565b6006546001600160a01b031633146103575760405162461bcd60e51b815260206004820152600e60248201526d139bdd08185d5d1a1bdc9a5e995960921b60448201526064015b60405180910390fd5b6001600160a01b0381166103a65760405162461bcd60e51b815260206004820152601660248201527524b73b30b634b2103932bbb0b9321036b0b730b3b2b960511b604482015260640161034e565b600480546001600160a01b0319166001600160a01b0392909216919091179055565b335f9081526003602052604090205460ff1661043d5760405162461bcd60e51b815260206004820152602e60248201527f4f6e6c7920617574686f72697a65642063616d706169676e732063616e20726560448201526d636f726420646f6e6174696f6e7360901b606482015260840161034e565b6001600160a01b03821661048a5760405162461bcd60e51b8152602060048201526014602482015273496e76616c69642075736572206164647265737360601b604482015260640161034e565b805f036104e85760405162461bcd60e51b815260206004820152602660248201527f446f6e6174696f6e20616d6f756e74206d75737420626520677265617465722060448201526507468616e20360d41b606482015260840161034e565b6001600160a01b038281165f818152600160208181526040808420815160608101835233815280840189815242828501908152835480880185559388528588209251600390940290920180546001600160a01b031916939099169290921788559051938701939093559151600295860155928252929091529081208054839290610573908490611029565b90915550506040805182815242602082015233916001600160a01b038516917f27da9383078920cb7a49360db829dd9695d88e5cd1dcf72e04899ab7e52d0fea910160405180910390a35050565b6006546001600160a01b0316331461060c5760405162461bcd60e51b815260206004820152600e60248201526d139bdd08185d5d1a1bdc9a5e995960921b604482015260640161034e565b6001600160a01b0381166106625760405162461bcd60e51b815260206004820152601860248201527f496e76616c69642063616d706169676e20666163746f72790000000000000000604482015260640161034e565b600580546001600160a01b0319166001600160a01b0392909216919091179055565b6001602052815f5260405f20818154811061069d575f80fd5b5f9182526020909120600390910201805460018201546002909201546001600160a01b03909116935090915083565b6004546001600160a01b031633146107265760405162461bcd60e51b815260206004820181905260248201527f4f6e6c79205265776172644d616e616765722063616e2063616c6c2074686973604482015260640161034e565b6001600160a01b03165f90815260026020526040812055565b60408051808201909152606081525f60208201526001600160a01b0382165f9081526020819052604090819020815180830190925280548290829061078390611042565b80601f01602080910402602001604051908101604052809291908181526020018280546107af90611042565b80156107fa5780601f106107d1576101008083540402835291602001916107fa565b820191905f5260205f20905b8154815290600101906020018083116107dd57829003601f168201915b50505091835250506001919091015460ff16151560209091015292915050565b6001600160a01b0381165f908152600160209081526040808320805482518185028101850190935280835260609492939192909184015b828210156108a5575f848152602090819020604080516060810182526003860290920180546001600160a01b0316835260018082015484860152600290910154918301919091529083529092019101610851565b505050509050919050565b5f602081905290815260409020805481906108ca90611042565b80601f01602080910402602001604051908101604052809291908181526020018280546108f690611042565b80156109415780601f1061091857610100808354040283529160200191610941565b820191905f5260205f20905b81548152906001019060200180831161092457829003601f168201915b5050506001909301549192505060ff1682565b6005546001600160a01b031633146109b95760405162461bcd60e51b815260206004820152602260248201527f4f6e6c792043616d706169676e466163746f72792063616e2063616c6c207468604482015261697360f01b606482015260840161034e565b6001600160a01b038116610a0f5760405162461bcd60e51b815260206004820152601860248201527f496e76616c69642063616d706169676e20616464726573730000000000000000604482015260640161034e565b6001600160a01b03165f908152600360205260409020805460ff19166001179055565b335f9081526003602052604090205460ff16610aa85760405162461bcd60e51b815260206004820152602f60248201527f4f6e6c7920617574686f72697a65642063616d706169676e732063616e20726560448201526e766572736520646f6e6174696f6e7360881b606482015260840161034e565b6001600160a01b038216610af55760405162461bcd60e51b8152602060048201526014602482015273496e76616c69642075736572206164647265737360601b604482015260640161034e565b805f03610b505760405162461bcd60e51b8152602060048201526024808201527f526566756e6420616d6f756e74206d75737420626520677265617465722074686044820152630616e20360e41b606482015260840161034e565b6001600160a01b0382165f90815260026020526040902054818110610b9657610b79828261107a565b6001600160a01b0384165f90815260026020526040902055610c7a565b6001600160a01b0383165f908152600260205260408120819055610bba828461107a565b6004549091506001600160a01b0316610c155760405162461bcd60e51b815260206004820152601d60248201527f526577617264206d616e61676572206e6f7420636f6e66696775726564000000604482015260640161034e565b6004805460405163fcfe860b60e01b81526001600160a01b03878116938201939093526024810184905291169063fcfe860b906044015f604051808303815f87803b158015610c62575f5ffd5b505af1158015610c74573d5f5f3e3d5ffd5b50505050505b6040805183815242602082015233916001600160a01b038616917fdbb6830343561248ec22673f90d81776ccba99e2e615bf01e58966479af91cfd910160405180910390a3505050565b5f815111610d145760405162461bcd60e51b815260206004820152601860248201527f557365726e616d652063616e6e6f7420626520656d7074790000000000000000604482015260640161034e565b335f9081526020819052604090206001015460ff1615610d765760405162461bcd60e51b815260206004820152601760248201527f5573657220616c72656164792072656769737465726564000000000000000000604482015260640161034e565b6040805180820182528281526001602080830191909152335f908152908190529190912081518190610da890826110d9565b50602091909101516001909101805460ff191691151591909117905560405133907f89105a1c6a3c2fbd471255c66a31ccab604af5697f67d7e2e9a0028c5e4dbd9190610df89084904290611194565b60405180910390a250565b80356001600160a01b0381168114610e19575f5ffd5b919050565b5f60208284031215610e2e575f5ffd5b610e3782610e03565b9392505050565b5f5f60408385031215610e4f575f5ffd5b610e5883610e03565b946020939093013593505050565b5f81518084528060208401602086015e5f602082860101526020601f19601f83011685010191505092915050565b602081525f825160406020840152610eaf6060840182610e66565b90506020840151151560408401528091505092915050565b602080825282518282018190525f918401906040840190835b81811015610f2057835180516001600160a01b03168452602080820151818601526040918201519185019190915290930192606090920191600101610ee0565b509095945050505050565b604081525f610f3d6040830185610e66565b905082151560208301529392505050565b634e487b7160e01b5f52604160045260245ffd5b5f60208284031215610f72575f5ffd5b813567ffffffffffffffff811115610f88575f5ffd5b8201601f81018413610f98575f5ffd5b803567ffffffffffffffff811115610fb257610fb2610f4e565b604051601f8201601f19908116603f0116810167ffffffffffffffff81118282101715610fe157610fe1610f4e565b604052818152828201602001861015610ff8575f5ffd5b816020840160208301375f91810160200191909152949350505050565b634e487b7160e01b5f52601160045260245ffd5b8082018082111561103c5761103c611015565b92915050565b600181811c9082168061105657607f821691505b60208210810361107457634e487b7160e01b5f52602260045260245ffd5b50919050565b8181038181111561103c5761103c611015565b601f8211156110d457805f5260205f20601f840160051c810160208510156110b25750805b601f840160051c820191505b818110156110d1575f81556001016110be565b50505b505050565b815167ffffffffffffffff8111156110f3576110f3610f4e565b611107816111018454611042565b8461108d565b6020601f821160018114611139575f83156111225750848201515b5f19600385901b1c1916600184901b1784556110d1565b5f84815260208120601f198516915b828110156111685787850151825560209485019460019092019101611148565b508482101561118557868401515f19600387901b60f8161c191681555b50505050600190811b01905550565b604081525f6111a66040830185610e66565b9050826020830152939250505056fea26469706673582212206042a80de0ed1c2f36b5ee4f238ef07c3bf82163b7da629b332b4054413b201864736f6c634300081c0033",
  "linkReferences": {},
  "deployedLinkReferences": {},
  "immutableReferences": {},
  "inputSourceName": "project/contracts/UserRegistry.sol",
  "buildInfoId": "solc-0_8_28-df4bb9eebea9a444a8102746dfb767b5c592cd4d"
}