{
  "_format": "hh3-artifact-1",
  "contractName": "UserRegistry",
  "sourceName": "contracts/UserRegistry.sol",
  "abi": [
    {
      "inputs": [],
      "stateMutability": "nonpayable",
      "type": "constructor"
    },
    {
      "anonymous": false,
      "inputs": [
        {
          "indexed": true,
          "internalType": "address",
          "name": "user",
          "type": "address"
        },
        {
          "indexed": true,
          "internalType": "address",
          "name": "campaign",
          "type": "address"
        },
        {
          "indexed": false,
          "internalType": "uint256",
          "name": "amount",
          "type": "uint256"
        },
        {
          "indexed": false,
          "internalType": "uint256",
          "name": "timestamp",
          "type": "uint256"
        }
      ],
      "name": "DonationRecorded",
      "type": "event"
    },
    {
      "anonymous": false,
      "inputs": [
        {
          "indexed": true,
          "internalType": "address",
          "name": "userAddress",
          "type": "address"
        },
        {
          "indexed": false,
          "internalType": "string",
          "name": "username",
          "type": "string"
        },
        {
          "indexed": false,
          "internalType": "uint256",
          "name": "timestamp",
          "type": "uint256"
        }
      ],
      "name": "UserRegistered",
      "type": "event"
    },
    {
      "inputs": [
        {
          "internalType": "address",
          "name": "",
          "type": "address"
        }
      ],
      "name": "claimableRewards",
      "outputs": [
        {
          "internalType": "uint256",
          "name": "",
          "type": "uint256"
        }
      ],
      "stateMutability": "view",
      "type": "function"
    },
    {
      "inputs": [
        {
          "internalType": "address",
          "name": "_user",
          "type": "address"
        }
      ],
      "name": "getClaimableRewards",
      "outputs": [
        {
          "internalType": "uint256",
          "name": "",
          "type": "uint256"
        }
      ],
      "stateMutability": "view",
      "type": "function"
    },
    {
      "inputs": [
        {
          "internalType": "address",
          "name": "_userAddress",
          "type": "address"
        }
      ],
      "name": "getUser",
      "outputs": [
        {
          "components": [
            {
              "internalType": "string",
              "name": "name",
              "type": "string"
            },
            {
              "internalType": "bool",
              "name": "isRegistered",
              "type": "bool"
            }
          ],
          "internalType": "struct UserRegistry.User",
          "name": "",
          "type": "tuple"
        }
      ],
      "stateMutability": "view",
      "type": "function"
    },
    {
      "inputs": [
        {
          "internalType": "address",
          "name": "_userAddress",
          "type": "address"
        }
      ],
      "name": "getUserDonations",
      "outputs": [
        {
          "components": [
            {
              "internalType": "address",
              "name": "campaign",
              "type": "address"
            },
            {
              "internalType": "uint256",
              "name": "amount",
              "type": "uint256"
            },
            {
              "internalType": "uint256",
              "name": "timestamp",
              "type": "uint256"
            }
          ],
          "internalType": "struct UserRegistry.DonationRecord[]",
          "name": "",
          "type": "tuple[]"
        }
      ],
      "stateMutability": "view",
      "type": "function"
    },
    {
      "inputs": [],
      "name": "owner",
      "outputs": [
        {
          "internalType": "address",
          "name": "",
          "type": "address"
        }
      ],
      "stateMutability": "view",
      "type": "function"
    },
    {
      "inputs": [
        {
          "internalType": "address",
          "name": "_user",
          "type": "address"
        },
        {
          "internalType": "uint256",
          "name": "_amount",
          "type": "uint256"
        }
      ],
      "name": "recordDonation",
      "outputs": [],
      "stateMutability": "nonpayable",
      "type": "function"
    },
    {
      "inputs": [
        {
          "internalType": "string",
          "name": "_name",
          "type": "string"
        }
      ],
      "name": "register",
      "outputs": [],
      "stateMutability": "nonpayable",
      "type": "function"
    },
    {
      "inputs": [
        {
          "internalType": "address",
          "name": "_user",
          "type": "address"
        }
      ],
      "name": "resetRewards",
      "outputs": [],
      "stateMutability": "nonpayable",
      "type": "function"
    },
    {
      "inputs": [],
      "name": "rewardManager",
      "outputs": [
        {
          "internalType": "address",
          "name": "",
          "type": "address"
        }
      ],
      "stateMutability": "view",
      "type": "function"
    },
    {
      "inputs": [
        {
          "internalType": "address",
          "name": "_rewardManager",
          "type": "address"
        }
      ],
      "name": "setRewardManager",
      "outputs": [],
      "stateMutability": "nonpayable",
      "type": "function"
    },
    {
      "inputs": [
        {
          "internalType": "address",
          "name": "",
          "type": "address"
        },
        {
          "internalType": "uint256",
          "name": "",
          "type": "uint256"
        }
      ],
      "name": "userDonations",
      "outputs": [
        {
          "internalType": "address",
          "name": "campaign",
          "type": "address"
        },
        {
          "internalType": "uint256",
          "name": "amount",
          "type": "uint256"
        },
        {
          "internalType": "uint256",
          "name": "timestamp",
          "type": "uint256"
        }
      ],
      "stateMutability": "view",
      "type": "function"
    },
    {
      "inputs": [
        {
          "internalType": "address",
          "name": "",
          "type": "address"
        }
      ],
      "name": "users",
      "outputs": [
        {
          "internalType": "string",
          "name": "name",
          "type": "string"
        },
        {
          "internalType": "bool",
          "name": "isRegistered",
          "type": "bool"
        }
      ],
      "stateMutability": "view",
      "type": "function"
    }
  ],
  "bytecode": "0x6080604052348015600e575f5ffd5b50600480546001600160a01b03191633179055610c0a8061002e5f395ff3fe608060405234801561000f575f5ffd5b50600436106100b1575f3560e01c80636f77926b1161006e5780636f77926b1461018e578063732435b2146101ae5780638da5cb5b146101ce578063a87430ba146101e1578063dc01f60d14610202578063f2c298be14610221575f5ffd5b80630f4ef8a6146100b5578063153ee554146100e557806326af520f146100fa578063308e401e1461010d5780634933e631146101435780635aa0c7f81461017b575b5f5ffd5b6003546100c8906001600160a01b031681565b6040516001600160a01b0390911681526020015b60405180910390f35b6100f86100f336600461087d565b610234565b005b6100f861010836600461089d565b6102f5565b61013561011b36600461087d565b6001600160a01b03165f9081526002602052604090205490565b6040519081526020016100dc565b61015661015136600461089d565b610453565b604080516001600160a01b0390941684526020840192909252908201526060016100dc565b6100f861018936600461087d565b61049b565b6101a161019c36600461087d565b61050e565b6040516100dc91906108f3565b6101c16101bc36600461087d565b6105e9565b6040516100dc9190610926565b6004546100c8906001600160a01b031681565b6101f46101ef36600461087d565b61067f565b6040516100dc92919061098a565b61013561021036600461087d565b60026020525f908152604090205481565b6100f861022f3660046109c1565b610723565b6004546001600160a01b031633146102845760405162461bcd60e51b815260206004820152600e60248201526d139bdd08185d5d1a1bdc9a5e995960921b60448201526064015b60405180910390fd5b6001600160a01b0381166102d35760405162461bcd60e51b815260206004820152601660248201527524b73b30b634b2103932bbb0b9321036b0b730b3b2b960511b604482015260640161027b565b600380546001600160a01b0319166001600160a01b0392909216919091179055565b6001600160a01b0382166103425760405162461bcd60e51b8152602060048201526014602482015273496e76616c69642075736572206164647265737360601b604482015260640161027b565b805f036103a05760405162461bcd60e51b815260206004820152602660248201527f446f6e6174696f6e20616d6f756e74206d75737420626520677265617465722060448201526507468616e20360d41b606482015260840161027b565b6001600160a01b038281165f8181526001602081815260408084208151606081018352338082528185018a8152428386018181528554808a018755958a52988790209351600390950290930180546001600160a01b03191694909a16939093178955915194880194909455935160029096019590955584518681529081019190915290927f27da9383078920cb7a49360db829dd9695d88e5cd1dcf72e04899ab7e52d0fea910160405180910390a35050565b6001602052815f5260405f20818154811061046c575f80fd5b5f9182526020909120600390910201805460018201546002909201546001600160a01b03909116935090915083565b6003546001600160a01b031633146104f55760405162461bcd60e51b815260206004820181905260248201527f4f6e6c79205265776172644d616e616765722063616e2063616c6c2074686973604482015260640161027b565b6001600160a01b03165f90815260026020526040812055565b60408051808201909152606081525f60208201526001600160a01b0382165f9081526020819052604090819020815180830190925280548290829061055290610a74565b80601f016020809104026020016040519081016040528092919081815260200182805461057e90610a74565b80156105c95780601f106105a0576101008083540402835291602001916105c9565b820191905f5260205f20905b8154815290600101906020018083116105ac57829003601f168201915b50505091835250506001919091015460ff16151560209091015292915050565b6001600160a01b0381165f908152600160209081526040808320805482518185028101850190935280835260609492939192909184015b82821015610674575f848152602090819020604080516060810182526003860290920180546001600160a01b0316835260018082015484860152600290910154918301919091529083529092019101610620565b505050509050919050565b5f6020819052908152604090208054819061069990610a74565b80601f01602080910402602001604051908101604052809291908181526020018280546106c590610a74565b80156107105780601f106106e757610100808354040283529160200191610710565b820191905f5260205f20905b8154815290600101906020018083116106f357829003601f168201915b5050506001909301549192505060ff1682565b5f8151116107735760405162461bcd60e51b815260206004820152601860248201527f557365726e616d652063616e6e6f7420626520656d7074790000000000000000604482015260640161027b565b335f9081526020819052604090206001015460ff16156107d55760405162461bcd60e51b815260206004820152601760248201527f5573657220616c72656164792072656769737465726564000000000000000000604482015260640161027b565b6040805180820182528281526001602080830191909152335f9081529081905291909120815181906108079082610af8565b50602091909101516001909101805460ff191691151591909117905560405133907f89105a1c6a3c2fbd471255c66a31ccab604af5697f67d7e2e9a0028c5e4dbd91906108579084904290610bb3565b60405180910390a250565b80356001600160a01b0381168114610878575f5ffd5b919050565b5f6020828403121561088d575f5ffd5b61089682610862565b9392505050565b5f5f604083850312156108ae575f5ffd5b6108b783610862565b946020939093013593505050565b5f81518084528060208401602086015e5f602082860101526020601f19601f83011685010191505092915050565b602081525f82516040602084015261090e60608401826108c5565b90506020840151151560408401528091505092915050565b602080825282518282018190525f918401906040840190835b8181101561097f57835180516001600160a01b0316845260208082015181860152604091820151918501919091529093019260609092019160010161093f565b509095945050505050565b604081525f61099c60408301856108c5565b905082151560208301529392505050565b634e487b7160e01b5f52604160045260245ffd5b5f602082840312156109d1575f5ffd5b813567ffffffffffffffff8111156109e7575f5ffd5b8201601f810184136109f7575f5ffd5b803567ffffffffffffffff811115610a1157610a116109ad565b604051601f8201601f19908116603f0116810167ffffffffffffffff81118282101715610a4057610a406109ad565b604052818152828201602001861015610a57575f5ffd5b816020840160208301375f91810160200191909152949350505050565b600181811c90821680610a8857607f821691505b602082108103610aa657634e487b7160e01b5f52602260045260245ffd5b50919050565b601f821115610af357805f5260205f20601f840160051c81016020851015610ad15750805b601f840160051c820191505b81811015610af0575f8155600101610add565b50505b505050565b815167ffffffffffffffff811115610b1257610b126109ad565b610b2681610b208454610a74565b84610aac565b6020601f821160018114610b58575f8315610b415750848201515b5f19600385901b1c1916600184901b178455610af0565b5f84815260208120601f198516915b82811015610b875787850151825560209485019460019092019101610b67565b5084821015610ba457868401515f19600387901b60f8161c191681555b50505050600190811b01905550565b604081525f610bc560408301856108c5565b9050826020830152939250505056fea26469706673582212203269ab0bbf8e814da6f7649a7128ce339b75cacb3a958a50aaf46482b831064b64736f6c634300081c0033",
  "linkReferences": {},
  "deployedLinkReferences": {},
  "immutableReferences": {},
  "inputSourceName": "project/contracts/UserRegistry.sol",
  "buildInfoId": "solc-0_8_28-8eb3516543f4c5fd14ec77006baa5921005dc6ce"
}