{
  "_format": "hh3-artifact-1",
  "contractName": "UserRegistry",
  "sourceName": "contracts/UserRegistry.sol",
  "abi": [
    {
      "anonymous": false,
      "inputs": [
        {
          "indexed": true,
          "internalType": "address",
          "name": "userAddress",
          "type": "address"
        },
        {
          "indexed": false,
          "internalType": "string",
          "name": "username",
          "type": "string"
        }
      ],
      "name": "UserRegistered",
      "type": "event"
    },
    {
      "inputs": [
        {
          "internalType": "address",
          "name": "_userAddress",
          "type": "address"
        }
      ],
      "name": "getUser",
      "outputs": [
        {
          "components": [
            {
              "internalType": "string",
              "name": "name",
              "type": "string"
            },
            {
              "internalType": "bool",
              "name": "isRegistered",
              "type": "bool"
            }
          ],
          "internalType": "struct UserRegistry.User",
          "name": "",
          "type": "tuple"
        }
      ],
      "stateMutability": "view",
      "type": "function"
    },
    {
      "inputs": [
        {
          "internalType": "string",
          "name": "_name",
          "type": "string"
        }
      ],
      "name": "register",
      "outputs": [],
      "stateMutability": "nonpayable",
      "type": "function"
    },
    {
      "inputs": [
        {
          "internalType": "address",
          "name": "",
          "type": "address"
        }
      ],
      "name": "users",
      "outputs": [
        {
          "internalType": "string",
          "name": "name",
          "type": "string"
        },
        {
          "internalType": "bool",
          "name": "isRegistered",
          "type": "bool"
        }
      ],
      "stateMutability": "view",
      "type": "function"
    }
  ],
  "bytecode": "0x6080604052348015600e575f5ffd5b506106628061001c5f395ff3fe608060405234801561000f575f5ffd5b506004361061003f575f3560e01c80636f77926b14610043578063a87430ba1461006c578063f2c298be1461008d575b5f5ffd5b610056610051366004610363565b6100a2565b60405161006391906103be565b60405180910390f35b61007f61007a366004610363565b61017d565b6040516100639291906103f1565b6100a061009b366004610428565b610221565b005b60408051808201909152606081525f60208201526001600160a01b0382165f908152602081905260409081902081518083019092528054829082906100e6906104db565b80601f0160208091040260200160405190810160405280929190818152602001828054610112906104db565b801561015d5780601f106101345761010080835404028352916020019161015d565b820191905f5260205f20905b81548152906001019060200180831161014057829003601f168201915b50505091835250506001919091015460ff16151560209091015292915050565b5f60208190529081526040902080548190610197906104db565b80601f01602080910402602001604051908101604052809291908181526020018280546101c3906104db565b801561020e5780601f106101e55761010080835404028352916020019161020e565b820191905f5260205f20905b8154815290600101906020018083116101f157829003601f168201915b5050506001909301549192505060ff1682565b5f8151116102765760405162461bcd60e51b815260206004820152601860248201527f557365726e616d652063616e6e6f7420626520656d707479000000000000000060448201526064015b60405180910390fd5b335f9081526020819052604090206001015460ff16156102d85760405162461bcd60e51b815260206004820152601760248201527f5573657220616c72656164792072656769737465726564000000000000000000604482015260640161026d565b6040805180820182528281526001602080830191909152335f90815290819052919091208151819061030a908261055f565b50602091909101516001909101805460ff191691151591909117905560405133907f48cac28ad4dc618e15f4c2dd5e97751182f166de97b25618318b2112aa951a2f9061035890849061061a565b60405180910390a250565b5f60208284031215610373575f5ffd5b81356001600160a01b0381168114610389575f5ffd5b9392505050565b5f81518084528060208401602086015e5f602082860101526020601f19601f83011685010191505092915050565b602081525f8251604060208401526103d96060840182610390565b90506020840151151560408401528091505092915050565b604081525f6104036040830185610390565b905082151560208301529392505050565b634e487b7160e01b5f52604160045260245ffd5b5f60208284031215610438575f5ffd5b813567ffffffffffffffff81111561044e575f5ffd5b8201601f8101841361045e575f5ffd5b803567ffffffffffffffff81111561047857610478610414565b604051601f8201601f19908116603f0116810167ffffffffffffffff811182821017156104a7576104a7610414565b6040528181528282016020018610156104be575f5ffd5b816020840160208301375f91810160200191909152949350505050565b600181811c908216806104ef57607f821691505b60208210810361050d57634e487b7160e01b5f52602260045260245ffd5b50919050565b601f82111561055a57805f5260205f20601f840160051c810160208510156105385750805b601f840160051c820191505b81811015610557575f8155600101610544565b50505b505050565b815167ffffffffffffffff81111561057957610579610414565b61058d8161058784546104db565b84610513565b6020601f8211600181146105bf575f83156105a85750848201515b5f19600385901b1c1916600184901b178455610557565b5f84815260208120601f198516915b828110156105ee57878501518255602094850194600190920191016105ce565b508482101561060b57868401515f19600387901b60f8161c191681555b50505050600190811b01905550565b602081525f610389602083018461039056fea26469706673582212201e2ddb4809d0f518f5b44fb3bf00b1bbe3dc1914980e73abd00a9a1cf7ae140964736f6c634300081c0033",
  "linkReferences": {},
  "deployedLinkReferences": {},
  "immutableReferences": {},
  "inputSourceName": "project/contracts/UserRegistry.sol",
  "buildInfoId": "solc-0_8_28-29edc70d00c163b68990b8881aa46a166a9158a0"
}