{
  "_format": "hh3-artifact-1",
  "contractName": "UserRegistry",
  "sourceName": "contracts/UserRegistry.sol",
  "abi": [
    {
      "inputs": [],
      "stateMutability": "nonpayable",
      "type": "constructor"
    },
    {
      "anonymous": false,
      "inputs": [
        {
          "indexed": true,
          "internalType": "address",
          "name": "user",
          "type": "address"
        },
        {
          "indexed": true,
          "internalType": "address",
          "name": "campaign",
          "type": "address"
        },
        {
          "indexed": false,
          "internalType": "uint256",
          "name": "amount",
          "type": "uint256"
        },
        {
          "indexed": false,
          "internalType": "uint256",
          "name": "timestamp",
          "type": "uint256"
        }
      ],
      "name": "DonationRecorded",
      "type": "event"
    },
    {
      "anonymous": false,
      "inputs": [
        {
          "indexed": true,
          "internalType": "address",
          "name": "userAddress",
          "type": "address"
        },
        {
          "indexed": false,
          "internalType": "string",
          "name": "username",
          "type": "string"
        },
        {
          "indexed": false,
          "internalType": "uint256",
          "name": "timestamp",
          "type": "uint256"
        }
      ],
      "name": "UserRegistered",
      "type": "event"
    },
    {
      "inputs": [
        {
          "internalType": "address",
          "name": "",
          "type": "address"
        }
      ],
      "name": "claimableRewards",
      "outputs": [
        {
          "internalType": "uint256",
          "name": "",
          "type": "uint256"
        }
      ],
      "stateMutability": "view",
      "type": "function"
    },
    {
      "inputs": [
        {
          "internalType": "address",
          "name": "_user",
          "type": "address"
        }
      ],
      "name": "getClaimableRewards",
      "outputs": [
        {
          "internalType": "uint256",
          "name": "",
          "type": "uint256"
        }
      ],
      "stateMutability": "view",
      "type": "function"
    },
    {
      "inputs": [
        {
          "internalType": "address",
          "name": "_userAddress",
          "type": "address"
        }
      ],
      "name": "getUser",
      "outputs": [
        {
          "components": [
            {
              "internalType": "string",
              "name": "name",
              "type": "string"
            },
            {
              "internalType": "bool",
              "name": "isRegistered",
              "type": "bool"
            }
          ],
          "internalType": "struct UserRegistry.User",
          "name": "",
          "type": "tuple"
        }
      ],
      "stateMutability": "view",
      "type": "function"
    },
    {
      "inputs": [
        {
          "internalType": "address",
          "name": "_userAddress",
          "type": "address"
        }
      ],
      "name": "getUserDonations",
      "outputs": [
        {
          "components": [
            {
              "internalType": "address",
              "name": "campaign",
              "type": "address"
            },
            {
              "internalType": "uint256",
              "name": "amount",
              "type": "uint256"
            },
            {
              "internalType": "uint256",
              "name": "timestamp",
              "type": "uint256"
            }
          ],
          "internalType": "struct UserRegistry.DonationRecord[]",
          "name": "",
          "type": "tuple[]"
        }
      ],
      "stateMutability": "view",
      "type": "function"
    },
    {
      "inputs": [],
      "name": "owner",
      "outputs": [
        {
          "internalType": "address",
          "name": "",
          "type": "address"
        }
      ],
      "stateMutability": "view",
      "type": "function"
    },
    {
      "inputs": [
        {
          "internalType": "address",
          "name": "_user",
          "type": "address"
        },
        {
          "internalType": "uint256",
          "name": "_amount",
          "type": "uint256"
        }
      ],
      "name": "recordDonation",
      "outputs": [],
      "stateMutability": "nonpayable",
      "type": "function"
    },
    {
      "inputs": [
        {
          "internalType": "string",
          "name": "_name",
          "type": "string"
        }
      ],
      "name": "register",
      "outputs": [],
      "stateMutability": "nonpayable",
      "type": "function"
    },
    {
      "inputs": [
        {
          "internalType": "address",
          "name": "_user",
          "type": "address"
        }
      ],
      "name": "resetRewards",
      "outputs": [],
      "stateMutability": "nonpayable",
      "type": "function"
    },
    {
      "inputs": [],
      "name": "rewardManager",
      "outputs": [
        {
          "internalType": "address",
          "name": "",
          "type": "address"
        }
      ],
      "stateMutability": "view",
      "type": "function"
    },
    {
      "inputs": [
        {
          "internalType": "address",
          "name": "_rewardManager",
          "type": "address"
        }
      ],
      "name": "setRewardManager",
      "outputs": [],
      "stateMutability": "nonpayable",
      "type": "function"
    },
    {
      "inputs": [
        {
          "internalType": "address",
          "name": "",
          "type": "address"
        },
        {
          "internalType": "uint256",
          "name": "",
          "type": "uint256"
        }
      ],
      "name": "userDonations",
      "outputs": [
        {
          "internalType": "address",
          "name": "campaign",
          "type": "address"
        },
        {
          "internalType": "uint256",
          "name": "amount",
          "type": "uint256"
        },
        {
          "internalType": "uint256",
          "name": "timestamp",
          "type": "uint256"
        }
      ],
      "stateMutability": "view",
      "type": "function"
    },
    {
      "inputs": [
        {
          "internalType": "address",
          "name": "",
          "type": "address"
        }
      ],
      "name": "users",
      "outputs": [
        {
          "internalType": "string",
          "name": "name",
          "type": "string"
        },
        {
          "internalType": "bool",
          "name": "isRegistered",
          "type": "bool"
        }
      ],
      "stateMutability": "view",
      "type": "function"
    }
  ],
  "bytecode": "0x6080604052348015600e575f5ffd5b50600480546001600160a01b03191633179055610b108061002e5f395ff3fe608060405234801561000f575f5ffd5b50600436106100b1575f3560e01c80636f77926b1161006e5780636f77926b1461018e578063732435b2146101ae5780638da5cb5b146101ce578063a87430ba146101e1578063dc01f60d14610202578063f2c298be14610221575f5ffd5b80630f4ef8a6146100b5578063153ee554146100e557806326af520f146100fa578063308e401e1461010d5780634933e631146101435780635aa0c7f81461017b575b5f5ffd5b6003546100c8906001600160a01b031681565b6040516001600160a01b0390911681526020015b60405180910390f35b6100f86100f3366004610783565b610234565b005b6100f86101083660046107a3565b6102a6565b61013561011b366004610783565b6001600160a01b03165f9081526002602052604090205490565b6040519081526020016100dc565b6101566101513660046107a3565b610359565b604080516001600160a01b0390941684526020840192909252908201526060016100dc565b6100f8610189366004610783565b6103a1565b6101a161019c366004610783565b610414565b6040516100dc91906107f9565b6101c16101bc366004610783565b6104ef565b6040516100dc919061082c565b6004546100c8906001600160a01b031681565b6101f46101ef366004610783565b610585565b6040516100dc929190610890565b610135610210366004610783565b60026020525f908152604090205481565b6100f861022f3660046108c7565b610629565b6004546001600160a01b031633146102845760405162461bcd60e51b815260206004820152600e60248201526d139bdd08185d5d1a1bdc9a5e995960921b60448201526064015b60405180910390fd5b600380546001600160a01b0319166001600160a01b0392909216919091179055565b6001600160a01b038281165f8181526001602081815260408084208151606081018352338082528185018a8152428386018181528554808a018755958a52988790209351600390950290930180546001600160a01b03191694909a16939093178955915194880194909455935160029096019590955584518681529081019190915290927f27da9383078920cb7a49360db829dd9695d88e5cd1dcf72e04899ab7e52d0fea910160405180910390a35050565b6001602052815f5260405f208181548110610372575f80fd5b5f9182526020909120600390910201805460018201546002909201546001600160a01b03909116935090915083565b6003546001600160a01b031633146103fb5760405162461bcd60e51b815260206004820181905260248201527f4f6e6c79205265776172644d616e616765722063616e2063616c6c2074686973604482015260640161027b565b6001600160a01b03165f90815260026020526040812055565b60408051808201909152606081525f60208201526001600160a01b0382165f908152602081905260409081902081518083019092528054829082906104589061097a565b80601f01602080910402602001604051908101604052809291908181526020018280546104849061097a565b80156104cf5780601f106104a6576101008083540402835291602001916104cf565b820191905f5260205f20905b8154815290600101906020018083116104b257829003601f168201915b50505091835250506001919091015460ff16151560209091015292915050565b6001600160a01b0381165f908152600160209081526040808320805482518185028101850190935280835260609492939192909184015b8282101561057a575f848152602090819020604080516060810182526003860290920180546001600160a01b0316835260018082015484860152600290910154918301919091529083529092019101610526565b505050509050919050565b5f6020819052908152604090208054819061059f9061097a565b80601f01602080910402602001604051908101604052809291908181526020018280546105cb9061097a565b80156106165780601f106105ed57610100808354040283529160200191610616565b820191905f5260205f20905b8154815290600101906020018083116105f957829003601f168201915b5050506001909301549192505060ff1682565b5f8151116106795760405162461bcd60e51b815260206004820152601860248201527f557365726e616d652063616e6e6f7420626520656d7074790000000000000000604482015260640161027b565b335f9081526020819052604090206001015460ff16156106db5760405162461bcd60e51b815260206004820152601760248201527f5573657220616c72656164792072656769737465726564000000000000000000604482015260640161027b565b6040805180820182528281526001602080830191909152335f90815290819052919091208151819061070d90826109fe565b50602091909101516001909101805460ff191691151591909117905560405133907f89105a1c6a3c2fbd471255c66a31ccab604af5697f67d7e2e9a0028c5e4dbd919061075d9084904290610ab9565b60405180910390a250565b80356001600160a01b038116811461077e575f5ffd5b919050565b5f60208284031215610793575f5ffd5b61079c82610768565b9392505050565b5f5f604083850312156107b4575f5ffd5b6107bd83610768565b946020939093013593505050565b5f81518084528060208401602086015e5f602082860101526020601f19601f83011685010191505092915050565b602081525f82516040602084015261081460608401826107cb565b90506020840151151560408401528091505092915050565b602080825282518282018190525f918401906040840190835b8181101561088557835180516001600160a01b03168452602080820151818601526040918201519185019190915290930192606090920191600101610845565b509095945050505050565b604081525f6108a260408301856107cb565b905082151560208301529392505050565b634e487b7160e01b5f52604160045260245ffd5b5f602082840312156108d7575f5ffd5b813567ffffffffffffffff8111156108ed575f5ffd5b8201601f810184136108fd575f5ffd5b803567ffffffffffffffff811115610917576109176108b3565b604051601f8201601f19908116603f0116810167ffffffffffffffff81118282101715610946576109466108b3565b60405281815282820160200186101561095d575f5ffd5b816020840160208301375f91810160200191909152949350505050565b600181811c9082168061098e57607f821691505b6020821081036109ac57634e487b7160e01b5f52602260045260245ffd5b50919050565b601f8211156109f957805f5260205f20601f840160051c810160208510156109d75750805b601f840160051c820191505b818110156109f6575f81556001016109e3565b50505b505050565b815167ffffffffffffffff811115610a1857610a186108b3565b610a2c81610a26845461097a565b846109b2565b6020601f821160018114610a5e575f8315610a475750848201515b5f19600385901b1c1916600184901b1784556109f6565b5f84815260208120601f198516915b82811015610a8d5787850151825560209485019460019092019101610a6d565b5084821015610aaa57868401515f19600387901b60f8161c191681555b50505050600190811b01905550565b604081525f610acb60408301856107cb565b9050826020830152939250505056fea26469706673582212200d538c668d647b62102fa7073700e3d71c5e2689753b641f70df978fb24b083d64736f6c634300081c0033",
  "linkReferences": {},
  "deployedLinkReferences": {},
  "immutableReferences": {},
  "inputSourceName": "project/contracts/UserRegistry.sol",
  "buildInfoId": "solc-0_8_28-d28d383afecc77381ed436c972bf720079fd38ce"
}